:020000040000FA
:10000000B0E500202104000051040000530400006A
:1000100055040000570400005904000000000000CF
:1000200000000000000000000000000011030000BC
:100030005D0400000000000089030000C50300000B
:10004000E5320000F53200000533000015330000F2
:1000500025330000353300004533000055330000E0
:1000600065330000753300008533000095330000D0
:10007000A5330000B5330000C5330000D5330000C0
:10008000E5330000F53300000534000015340000AE
:10009000253400003534000045340000553400009C
:1000A000653400007534000085340000953400008C
:1000B000A5340000B5340000C5340000D53400007C
:1000C000E5340000F534000005350000153500006A
:1000D0002535000035350000453500005535000058
:1000E0006535000075350000853500009535000048
:1000F000A5350000B5350000C5350000D535000038
:10010000E5350000F5350000053600001536000025
:100110002536000035360000453600005536000013
:100120006536000075360000853600009536000003
:10013000A5360000B5360000C5360000D5360000F3
:10014000E5360000F53600000537000015370000E1
:1001500025370000353700004537000055370000CF
:1001600065370000753700008537000095370000BF
:10017000A5370000B5370000C5370000D5370000AF
:10018000E5370000F537000005380000153800009D
:10019000253800003538000045380000553800008B
:1001A000653800007538000085380000953800007B
:1001B000A5380000B5380000C5380000D53800006B
:1001C000E5380000F5380000053900001539000059
:1001D0002539000035390000453900005539000047
:1001E0006539000075390000853900009539000037
:1001F000A5390000B5390000C5390000D539000027
:10020000E5390000F5390000053A0000153A000014
:10021000253A0000353A0000453A0000553A000002
:10022000653A0000753A0000853A0000953A0000F2
:10023000A53A0000B53A0000C53A0000D53A0000E2
:100240006304000063040000630400006304000012
:100250006304000063040000630400006304000002
:1002600063040000630400006304000063040000F2
:1002700063040000630400006304000063040000E2
:10028000DFF820D001F002F8AFF3008012F054FA4A
:100290000021034812F0A4FA12F060FAFEE7000011
:1002A00024400100B0E5002080F309887047EFF397
:1002B00009807047684680F3098804480078C007C1
:1002C00014BF0220032080F314887047E43F01002C
:1002D000DFF818C0EFF305831B0618BF6047EFF384
:1002E0001483DB0708BF604700DF7047092B01005C
:1002F000DFF818C0EFF305831B0618BF6047EFF364
:100300001483DB0708BF604700DF7047ED2C010056
:10031000EFF30980816911F8021CF1B990E80F1020
:10032000E047EFF3098C8CE80700144B93E80600D4
:1003300091420FD039B12CE9F00FC1F828C00CB4AC
:1003400012F0C8FF0CBC1A60D2F828C0BCE8F00F4D
:100350008CF309886FF0020E704710B5084A1268D6
:10036000914209D8074C54F8214090E80F10A0475B
:10037000EFF3098C8CE80F0010BD0000A092FF1F66
:10038000FC030000FC03000012F076FE0C4B93E827
:100390000600914210D0EFF3098C2CE9F00FC1F860
:1003A00028C00CB412F096FF0CBC1A60D2F828C01A
:1003B000BCE8F00F8CF309886FF0020E7047000064
:1003C000A092FF1F13F04EF8E0E7000012F090FA41
:1003D00013F048F8DAE7000040EA01039B0703D076
:1003E00009E008C9121F08C0042AFAD203E011F874
:1003F000013B00F8013B521EF9D27047000000009B
:10040000BFFFDFFFFFFEFFFFFFFFFFFFFFFFFFFF5D
:10041000FFFFFFFFFFFFFFFFFFFFFFFFFFFFFFFFEC
:1004200010484FF0770101600F484FF077010160ED
:100430000E484FF4885101600A484FF07601016080
:1004400009484FF076010160094880470948004794
:10045000FEE7FEE7FEE7FEE7FEE7FEE7FEE7FEE774
:10046000FEE7FEE7040805400C08054000080540CB
:10047000554B0000810200002DE9F05F0546002089
:1004800092469B4688460646814640241BE0284605
:1004900041464746224600F0E8FD53465A46C01AF8
:1004A000914110D311461846224600F0CFFD2D1A77
:1004B00067EB01084F4622460120002100F0C6FDEF
:1004C00017EB00094E41201EA4F10104DFDC484671
:1004D00031462A464346BDE8F09FD2B201E000F81B
:1004E000012B491EFBD270470022F6E710B51346D8
:1004F0000A4604461946FFF7F0FF204610BD421E8B
:1005000012F8013F002BFBD111F8013B02F8013B2F
:10051000002BF9D1704730B505462A460B4612F834
:10052000010B13F8014B08B1A042F8D01CB1002810
:1005300002D06D1CF1E7284630BD10B5044604E03A
:100540000B7800F8013B03B1491C521EF8D220463B
:1005500010BD421C10F8011B0029FBD1801A704706
:1005600010B5002200E0521C835C8C5CA34201D1D8
:10057000002BF8D1D8B2E1B2401A10BD034611F8F1
:10058000012B00F8012B002AF9D11846704730B52D
:1005900005460020034600E05B1C934205D2EC5C5C
:1005A000C85C201A01D1002CF6D130BD0FB400B5C3
:1005B0008DB010A909900B9000914FF0FF300A9078
:1005C00000200C9005480690054807906A4609A847
:1005D0000F9900F081FD0DB05DF814FBF5100000DF
:1005E000131100002DE9FF5F1D464FF0FF3BD5E9D9
:1005F000014691465F464FF00008A9697F1C0198AB
:100600008847296A824688470028F6D1BAF1FF3F19
:100610000CD024F4C064002E19DD600614D5BAF1A4
:100620002B0F09D0BAF12D0F0ED103E0584604B0BC
:10063000BDE8F09F44F48064A9697F1C0198884755
:10064000761E8246002E02DDBAF1300F03D0B9F1DA
:10065000000F26D032E0A969761E44F400747F1C96
:10066000019888478246002E05DDBAF1780F06D042
:10067000BAF1580F03D0B9F1000F10D01EE0B9F154
:10068000000F02D0B9F1100F18D1A969761E24F419
:1006900000747F1C019888478246102002E00820E1
:1006A00000E00A20814609E008FB0908A969761ED6
:1006B00044F400747F1C019888478246002E05DDB3
:1006C0004946504600F0F3FC0028EDDAE96901984C
:1006D0008847A00502D46FF00100A8E7E00725D104
:1006E000600613D5600502D5C8F1000000E0404661
:1006F00029680A1D2A600968220501D5087015E0DD
:10070000220701D5088011E008600FE02868011D6C
:1007100029600068210502D580F8008006E02107E5
:1007200002D5A0F8008001E0C0F8008038467EE7DE
:100730002DE9FF5FD2E901A74FF0000891699946C2
:100740001446DDF838B0464601988847054659EA10
:100750000B0005D009E0A169761C01988847054681
:10076000216A284688470028F5D1681C03D05FEA33
:10077000CA7005D015E04FF0FF3004B0BDE8F09F1F
:100780002068011D2160D0F800800AE05FEACA708D
:1007900001D108F8015BA169761C7F1E019888478A
:1007A0000546002F1ADD681C18D0B9F1000F0DD0D6
:1007B000E81705EBD060421120F01F0059F8221015
:1007C0002A1A012090400142E0D107E0BBF1000F5E
:1007D000DCD1216A284688470028D7D0E1690198F2
:1007E0008847BBF1000F07D1002E05DD5FEACA7014
:1007F00002D1002188F80010A068B84203DDBBF1E7
:10080000000F03D017B16FF00100B6E73046B4E730
:100810002DE9FF4F087883B09946FF2805D0491C81
:100820002D2804D00024002008E000200BE0012443
:10083000F9E700EB800003EB4000491C0B78FF2B2D
:10084000F7D104B1404200230293147819461D46A3
:100850002D2C01D02B2C04D1521C2D2C13D0002474
:100860000294AA461478FF2C0FD00A25A3FB057822
:1008700001FB05814FF0000C03FB0C11521CE31926
:100880004AEB0101EEE70124EAE7814453EA010063
:1008900002D019F5C87F06DA03980021C0E90011DB
:1008A00007B0BDE8F08F0025AE4E2F46DFF8B882C6
:1008B000184600F04AFBCDE90001B9F1000002DA68
:1008C000C9F1000400E004460023A74A1AEB030B19
:1008D00042EB045A12E0E00707D02A463346384676
:1008E000414600F044FA074688462A4633461046F9
:1008F000194600F03CFA05460E466410002CEAD179
:10090000DDE90001B9F1000F5A46534606DA00F05E
:10091000A0FA3A46434600F09CFA05E000F027FAB8
:100920003A46434600F023FA029A0AB181F00041A8
:10093000039AC2E90001B3E72DE9FF4F1F468DB0CE
:10094000D7E901464FF0FF382E2045464FF0000909
:100950000B90B9696D1C0E988847396A82468847A2
:100960000028F6D1BAF1FF3F0AD024F4D064002E5B
:1009700011DDBAF12B0F08D0BAF12D0F0BD102E027
:10098000404611B08DE744F48064B9696D1C0E983F
:1009900088478246761E6946600501D52D2000E015
:1009A0002B208DF8000001F1010B0DF1200809E06A
:1009B000B9696D1C0E98884782460F9844F40074FC
:1009C000761E0560002E02DDBAF1300FF0D00B99D3
:1009D0008A453ED144F0800406E00F99681CA9F1D5
:1009E000010944F400740860B9696D1C761E0E9804
:1009F000884782463028F0D02BE00B998A4505D1F4
:100A0000200603D444F08004761E18E0504605F01A
:100A100094FD08B30DF11301761E44F400748B4568
:100A200008D2AAF130000BF8010B200607D5A9F176
:100A3000010003E0200602D409F101008146A0056F
:100A400002D50F99681C0860B9696D1C0E9888471B
:100A50008246002ED1DC53E0002E51DDBAF1650F45
:100A600002D0BAF1450F4BD1A00549D5B9696D1C2B
:100A700024F44074761E0E9888478246002E0CDDC2
:100A80002B2804D0BAF12D0F07D144F48074B96932
:100A90006D1C0E9888478246761EE00501D52D21F3
:100AA00000E02B2108F8011BCDF82C8021E00DF18E
:100AB0002901761E44F4007488450CD2AAF1300056
:100AC00010F0FF0088F8000002D10B99884509D981
:100AD00008F1010806E0E00501D5244801E042F2F2
:100AE0000F708146B9696D1C0E98884782460F9831
:100AF0000560002E04DD504605F01FFD0028D6D10C
:100B0000F9690E988847FF208BF8000088F80000EC
:100B10000020069007904B466A4608A906A8FFF7F2
:100B200077FEA00502D46FF001002AE714F0240F2D
:100B30000AD0E00714D1DDE906123868031D3B60D6
:100B40000068C0E900120BE0DDE9060100F04CFA94
:100B50000146E00704D13868021D3A600068016070
:100B600028460EE7000014400000F03FF1D8FFFFD8
:100B7000F0B480EA0102D40F4200B2EB410F02D27E
:100B80000246084611464A0042D0C30DDDB2C1F309
:100B9000C752AD1A202D35DAC1F3160141F4000217
:100BA00004B15242C5F1200602FA06F12A4110446E
:100BB000B3EBD05F23D0C4B1012DA0EBC35009DC4F
:100BC000F0BC4FF0004202EAC352DBB200F5000075
:100BD00000F0B9BA400000F1807000EBC350A0F102
:100BE000807040EAD170490009E0490841EAC071CB
:100BF000A0EBC35000F50000400800EBC350F0BC70
:100C000000F098BA6142012202EB4101001BF6E7B5
:100C1000F0BC704781F00041AAE780F00040A7E7F0
:100C20002DE9FE4F804681EA0300C00F0C4600907C
:100C300021F0004123F00045B8EB0200A94105D2A4
:100C40004046214690461C460B46024623F0004093
:100C5000104347D0270DC7F30A00C3F30A5102908F
:100C6000401A019040286BDAC3F3130040F4801B54
:100C70000098924620B10023D2EB030A63EB0B0BE2
:100C800001985946C0F14002504600F0DFF906468F
:100C90000D4650465946019A00F0F7F910EB08004E
:100CA0006141002487EA115284EAE7731A4340D075
:100CB000009A62B3019A012A4FEA075215DC001B21
:100CC00061EB02014FF0004202EA0752CDE9004217
:100CD000001C41F5801132462B4600F071FA03B03A
:100CE000BDE8F08F40462146F9E7001B61EB0201A9
:100CF000001C41F5801300185B412018A2F5001775
:100D000047EB030140EAD570B6196D4111E06D085B
:100D10004FEA360645EAC0754FEA0752001B61EB01
:100D20000201001C41F5801149084FEA300000190A
:100D3000514132462B4603B0BDE8F04F00F031BAC6
:100D40000098012240000023D0EB020263EBE07325
:100D5000009821464FEAE074B8EB000061EB040113
:100D6000E9E783F000435BE781F0004158E72DE9B4
:100D7000FE4F81EA030404F0004421F00041009496
:100D80004FF0000B23F0004350EA01045ED052EA1A
:100D900003045BD0C3F30A54C1F30A552C44A4F2F4
:100DA000F3340194A0FB0254C1F3130141F4801108
:100DB000C3F3130343F4801301FB024400FB034E0F
:100DC000840A970A44EA815447EA8357A4FB0768D8
:100DD00002958D0A05FB07854FEA932C04FB0C5402
:100DE0002705029D4FEA065847EA1637B5EB080576
:100DF0006EEB070C870E920E47EA811742EA8312C8
:100E0000A7FB0201B6EB0B0164EB00042B0D43EAD8
:100E10000C335E1844EB1C50DA465146E7FB0201E6
:100E2000C5F313044FEA0B3343EA14534FEA043279
:100E3000019C43EA0603A4F10C040294009CCDE952
:100E400000B400F0BDF903B0BDE8F08F002001460A
:100E5000F9E72DE9F04D81EA030404F0004B21F09D
:100E6000004514464FF0000A23F0004150EA050205
:100E700020D054EA01021DD0C5F30A570246C5F33B
:100E80001303C1F31300C1F30A5640F4801543F471
:100E90008013A7EB0608101BD64608F2FD3873EB4B
:100EA000050002D308F1010801E092185B41B8F196
:100EB000000F03DA00200146BDE8F08D00204FF45A
:100EC0008011064684460EE0171B73EB050705D319
:100ED000121B63EB050306434CEA010C49084FEA79
:100EE000300092185B4150EA0107EDD152EA03004D
:100EF00012D082EA040083EA0501084305D0101BE2
:100F0000AB4106D20122002306E000224FF000434D
:100F100002E06FF0010253101AEB06004CEB08518F
:100F200010EB0A0041EB0B01BDE8F04D00F039B9C0
:100F30000EB540F2334102910021CDE900110A467D
:100F40000B4600F03DF903B000BD0EB540F2334250
:100F500002920022CDE90022134600F031F903B0DD
:100F600000BD00F0004230F000400AD0C10D01F594
:100F70006071C0F3160042EA0151C20840071143F4
:100F8000704700200146704730B5041E71F100041F
:100F900004DB4FF00044404264EB0101141E73F186
:100FA000000405DB1C464FF00043524263EB040390
:100FB0008B4208BF824230BD30B5041E71F100047F
:100FC00004DB4FF00044404264EB0101141E73F156
:100FD000000405DB1C464FF00043524263EB040360
:100FE000994208BF904230BD01F0004330B421F077
:100FF000004150EA010206D00A0DA2F56072C1F369
:101000001301002A02DC30BC00207047440F44EA80
:10101000C104C100E01830BC00EBC25000F08AB837
:1010200030B50B46014600202022012409E021FAB8
:1010300002F59D4205D303FA02F5491B04FA02F5B5
:101040002844151EA2F10102F1DC30BD202A04DB88
:10105000203A00FA02F1002070479140C2F12003CB
:1010600020FA03F3194390407047202A04DB203A0A
:1010700021FA02F00021704721FA02F3D040C2F1B8
:1010800020029140084319467047202A06DBCB17FF
:10109000203A41FA02F043EAE07306E041FA02F333
:1010A000D040C2F1200291400843194670473A28C7
:1010B00000D2303820F02002412A01D3A2F13700BB
:1010C000884201D34FF0FF3070470000026811449E
:1010D0001378016018467047D16004495161044992
:1010E000116200211161114600F0E8B8CD10000036
:1010F000B1120000426842B1016811F8013B23B10E
:10110000521EC0E90012184670470121C160881EB6
:10111000704742685AB1C368016843B983688B421B
:1011200005D0491E521CC0E90012002070474FF044
:10113000FF3070470029A8BF7047401C490008BF16
:1011400020F00100704710B4B0FA80FC00FA0CF0F7
:1011500050EA010404BF10BC704749B1CCF120042F
:1011600021FA04F411FA0CF118BF012121430843BC
:10117000A3EB0C01CB1D4FEA00614FEA102042BFE8
:10118000002010BC704700EBC35010440029A4BFDE
:1011900010BC7047401C490008BF20F0010010BC83
:1011A000704710B5141E73F1000408DA401C41F1B9
:1011B000000192185B411A4301D120F0010010BDDB
:1011C0002DE9F04D92469B4611B1B1FA81F202E051
:1011D000B0FA80F220329046FFF738FF04460F46FF
:1011E00040EA0A0041EA0B0153465A46084313D02D
:1011F000114653EA010019D0C8F140025046FFF7EA
:1012000034FF05460E46504659464246FFF71EFF3C
:10121000084305D0012004E020463946BDE8F08DA2
:101220000020054346EAE0762C4337430A986305DD
:10123000E40AA0EB08000022FD0A44EA47540A3001
:1012400002D500200146E9E7010510196941DDE9F1
:10125000084500196941BDE8F04DA2E7C1F30A5203
:10126000C1F3130140F2FF3341F480119A4202DAD4
:1012700000200146704740F233439A42A2F23342C3
:1012800002DC5242FFF7F1BEFFF7E0BE064C074D0D
:1012900006E0E06840F0010394E807009847103446
:1012A000AC42F6D3FEF7F0FF9C440100BC440100C1
:1012B000C0B24FF4F05100F099B900002DE9F34F9E
:1012C0008BB04FF0000801F10C000C464FF0010B01
:1012D00046460DF1080A0190626901210198904784
:1012E000051E2DD0252D2CD0216A8847C0B16269FA
:1012F000012101989047216A88470028F7D1411EB3
:1013000062690198904700E0761CA1690B988847B4
:10131000216A88470028F7D1E1690B988847DBE705
:10132000A1690B9888470746A84201D1761CD3E7EC
:10133000E1690B9888477F1C02D1B8F1000F6FD08C
:1013400047E1002762693D463946019890472A28BF
:1013500004D162690121019890470125DFF8889244
:101360006269012101989047A0F130010A290AD24F
:101370004F45E5DC07EB870100EB4107303FDFD449
:1013800045F01005ECE7E90601D46FF000476C2842
:101390000AD04C2814D0682815D06A280DD074289B
:1013A0001CD07A281AD01DE062690121019890476B
:1013B0006C2802D045F0040514E045F002050DE06C
:1013C00045F020050AE062690121019890476828EC
:1013D00002D045F0080505E045F400656269012189
:1013E00001989047C4E9015765283DD019DC582879
:1013F0007AD00CDC452837D004DC252826D04128BB
:1014000031D131E046282FD047282CD12CE05B2861
:1014100077D0612828D063287CD0642823D15AE073
:10142000D1E06F2848D008DC66281DD067281BD083
:10143000692821D06E2816D127E0702845D073285E
:1014400068D0752847D078280DD14DE0A1690B9858
:101450008847054625283FF469AFE1690B9888471E
:101460006D1C3FF46AAFB4E023466A466FF001009A
:101470000B99FFF761FA9FE045F040006060A80714
:1014800023464FF0000236D43EE0E8077FF447AF32
:101490002068011D21600068290501D506701BE741
:1014A000290701D5068017E7A90703D5F117C0E979
:1014B000006111E706600FE745F040006060A80793
:1014C00023464FF0080216D41EE040F60E0125EA2E
:1014D0000100606016E045F040006060A807234608
:1014E0004FF00A0207D40FE045F040006060A80703
:1014F00008D5234610226FF001000B99AFF300804E
:101500005AE007E0234610226FF001000B99FFF725
:1015100069F851E04FF000094F464B46632802D06E
:101520005B2807D041E02079C00601D40120A060EB
:1015300001273AE062690121019890475E2805D1B0
:101540004FF001096269494601989047216939B90C
:1015500000210A46534643F82120491C0829FADB9A
:10156000B0B3216969B9C11700EBD16253110AEB1D
:10157000830122F01F02821A01200B68904003436E
:101580000B6062690121019890475D28E8D1B9F1AB
:10159000000F09D00020514651F82020D24341F8D5
:1015A0002020401C0828F7DB02AB224600976FF092
:1015B00001000B99FFF7BCF800280CDA401C08D199
:1015C000BBF1000F05D04FF0FF300DB0BDE8F08F3C
:1015D000FFE74046F9E7E90701D108F101080644B1
:1015E0004FF0000B78E60000CCCCCC0C7F2801D962
:1015F000002208E0064A02EB5002C007127800D130
:10160000120902F00F0201209040084070470000CC
:101610003440010070B58C1810F8015B15F0070319
:1016200001D110F8013B2A1106D110F8012B03E07B
:1016300010F8016B01F8016B5B1EF9D12B0705D483
:101640000023521E0DD401F8013BFAE710F8013BCC
:10165000CB1A921C03E013F8015B01F8015B521EE8
:10166000F9D5A142D8D3002070BD10B503F00CFA13
:1016700006F00CFD002010BD70B504460D4600BFFD
:101680002D4884424DD0001D84424AD0001D844222
:1016900047D0001D844244D0001D844241D0001D2B
:1016A00084423ED0001D84423BD0001D844238D08D
:1016B000001D844235D0001D844232D0001D84427A
:1016C0002FD0001D84422CD0001D844229D0001D43
:1016D000844226D0001D844223D0001D844220D0A5
:1016E000001D84421DD0001D84421AD0001D84427A
:1016F00017D0001D844214D0001D844211D0001D5B
:1017000084420ED0001D84420BD0001D844208D0BC
:10171000001D844205D0001D844202D0001D844279
:1017200000D103E09C2105A000F030FA00BF206842
:1017300065F30800206070BD040801402E2E5C6433
:101740007269766572735C686333325F6C6C5F6478
:1017500072697665725C7372635C686333325F6C66
:101760006C5F616F732E630070B5044600250CB981
:10177000ED1E02E0204601F061FC284670BD00002D
:101780001C20014908607047008C004070B5044679
:101790006FF00205002C53D000BF206810B1206804
:1017A000022800D104E040F2A31126A000F0EEF9D7
:1017B00000BFFFF7E5FF00BFA068042801D0A068C4
:1017C00000B904E04FF4D3711EA000F0DFF900BFB0
:1017D00000BFE068082801D0E06800B904E040F2EA
:1017E000A71118A000F0D2F900BF00BF206910288F
:1017F00001D0206900B904E04FF4D47111A000F0C9
:10180000C5F900BFD4E9020108432169084318491A
:1018100008600846006820F00200217801F002010B
:101820000843134908602068022803D1091D606835
:10183000086004E0A08880B20D49091D08600025F9
:10184000284670BD2E2E5C647269766572735C6882
:101850006333325F6C6C5F6472697665725C73725D
:10186000635C686333325F6C6C5F6372632E63002A
:10187000008C004001466FF0020051B100220A6066
:10188000020C4A6004228A600822CA6010220A619F
:10189000002070472DE9FC4704460F4690469946C4
:1018A000DDE90AA54FF0FF361048844208D0104801
:1018B000844205D00F48844202D00F48844208D1A8
:1018C0004B46424639462046CDE900A500F016F8C1
:1018D00006463EB14B46424639462046009500F04A
:1018E000C7F806463046BDE8FC87000000D001403E
:1018F00000D4014000100240001402402DE9FF4FC7
:101900008BB082466FF00200079000BF48488245C6
:1019100008D04848824505D04748824502D047480C
:10192000824500D104E04FF4167145A000F02EF975
:1019300000BF0C9CDDF834900E98002873D01898E6
:10194000002870D0002C6ED0B9F1000F6BD04FEA98
:101950008900B4FBF0F0451E002D64D0FF2D62D845
:1019600000206A1C404104234FF0000CA2FB031B23
:1019700000FB03B002FB0C02A1FB097302FB09325E
:1019800001FB0C284FF480700021A7FB00B308FB7B
:10199000003007FB010C22460B4658466146FEF715
:1019A0006BFD8021461A7F2E3DD80E980560189851
:1019B00006601998A8B34A004FF0000C3B46A3FB01
:1019C000020B08FB02B107FB0C180746002080221F
:1019D000B11840EB00030022A1FB040C03FB04C37D
:1019E00001FB0231CDE9080138464146FFF7ADFA67
:1019F000CDE90201DDE90801FFF7A7FACDE9000111
:101A0000DDE90223FFF725FACDE90401FFF7ECFA3F
:101A100083464FF07E51FFF7FDF80A9019990A9816
:101A200008600020079007980FB0BDE8F08F000015
:101A300000D0014000D401400010024000140240D8
:101A40002E2E5C647269766572735C686333325FF4
:101A50006C6C5F6472697665725C7372635C6863F8
:101A600033325F6C6C5F75736172742E63000000BB
:101A70002DE9FF4F89B006469A466FF002000790A5
:101A800000BF3248864208D03148864205D03148EE
:101A9000864202D03048864200D104E040F29511DF
:101AA0002EA000F073F800BFDDF828900B9DBAF16E
:101AB000000F47D0B9F1000F44D0002D42D009EB00
:101AC00089004000A900B0FBF1F0401D0A21B0FBE5
:101AD000F1F0441EB4B3FF2C34D8CAF80040169875
:101AE00070B30020621C404104234FF0000CA2FBA5
:101AF000031E00FB03E002FB0C026346A1FB057C16
:101B000002FB05C201FB032838464146FFF71DFAD8
:101B1000CDE902014846FFF70BFACDE90001DDE906
:101B20000223FFF796F9CDE90401FFF75DFA4FF0C4
:101B30007E510690FFF76EF883461699C1F800B003
:101B40000020079007980DB0BDE8F08F00D001404D
:101B500000D4014000100240001402402E2E5C64AC
:101B60007269766572735C686333325F6C6C5F6454
:101B700072697665725C7372635C686333325F6C42
:101B80006C5F75736172742E6300000000BFFEE726
:101B900008B50D49096AC1F302630C490968D940C7
:101BA00042F210731944491EB1FBF3F206E00092B1
:101BB00000BF00994B1E00930029FAD1011EA0F12D
:101BC0000100F4D108BD0000004005400080FF1F67
:101BD0002DE9F04704460D469146002700BF6E48A8
:101BE000844202D06D48844200D104E04FF4AD71CC
:101BF0006BA0FFF7CBFF00BF00BF032D00D804E0B0
:101C000040F25B1166A0FFF7C1FF00BF00BFB9F152
:101C1000000F02D0B9F1010F00D104E04FF4AE7112
:101C20005FA0FFF7B3FF00BF6848007800287DD1B0
:101C3000012066490870E0690121A94020EA010AF3
:101C4000BAF1000F73D0E06900F00100D8B1D5B14E
:101C5000A06C4FEA1048A06E060C0A2E13D8464519
:101C600011D20BE0781C87B2B7F5A04F06D900203F
:101C7000564908706FF00700BDE8F087E06900F092
:101C800001000028EED1E06900F0020002281ED118
:101C9000012D1CD0D4F888004FEA1048D4F8A800D1
:101CA000060C0A2E13D8464511D200270AE0781CEC
:101CB00087B2B7F5A04F05D90020444908706FF0EE
:101CC0000700D9E7E06900F002000028EFD1E069E1
:101CD00000F0040004281ED1022D1CD00027D4F8E7
:101CE000C8004FEA1048D4F8E800060C0A2E12D8B3
:101CF000464510D20AE0781C87B2B7F5A04F05D947
:101D00000020324908706FF00700B5E7E06900F085
:101D100004000028EFD1E06900F00800082821D174
:101D2000032D1FD00027D4F8080101E030E019E0AE
:101D30004FEA1048D4F82801060C0A2E12D846455E
:101D400010D20AE0781C87B2B7F5A04F05D9002061
:101D50001E4908706FF007008EE7E06900F0080088
:101D60000028EFD1B9F1010F07D1E1690120A840A6
:101D700000F00F000143E16106E0E0690121A940A4
:101D80000F228A431040E06100201049087073E779
:101D90004FF0FF3070E70000003005400034054090
:101DA0002E2E5C647269766572735C686333325F91
:101DB0006C6C5F6472697665725C7372635C686395
:101DC00033325F6C6C5F646D612E63002080FF1F97
:101DD00070B504460D4600BF0F48844202D00F483C
:101DE000844200D104E040F243110DA0FFF7CEFE83
:101DF00000BF00BF2DB145F00F10B0F10F1F00D193
:101E000004E04FF4A27106A0FFF7C0FE00BFA06976
:101E10002843A06170BD000000300540003405403B
:101E20002E2E5C647269766572735C686333325F10
:101E30006C6C5F6472697665725C7372635C686314
:101E400033325F6C6C5F646D612E630070B5044665
:101E50000D4600BF0B48844202D00B48844200D19B
:101E600003E0DA2109A0FFF791FE00BF00BF0DB12A
:101E7000012D00D103E0DB2104A0FFF787FE00BFA6
:101E8000256070BD00300540003405402E2E5C6496
:101E90007269766572735C686333325F6C6C5F6421
:101EA00072697665725C7372635C686333325F6C0F
:101EB0006C5F646D612E630070B504460D4600BF13
:101EC0001048844202D01048844200D104E040F21D
:101ED000E3410EA0FFF75AFE00BF00BF032D00D85C
:101EE00004E040F2E44109A0FFF750FE00BF04F116
:101EF000680000EB851000684FF6FF7101EA1040A2
:101F000070BD000000300540003405402E2E5C649A
:101F10007269766572735C686333325F6C6C5F64A0
:101F200072697665725C7372635C686333325F6C8E
:101F30006C5F646D612E63002DE9F04106460D462D
:101F400014464FF0000800BF4948864202D0494875
:101F5000864200D104E040F2613147A0FFF716FE4F
:101F600000BF00BF032D00D804E040F2623142A060
:101F7000FFF70CFE00BF14B96FF0020874E000BF59
:101F8000E06838B1E068B0F5807F03D0E068B0F574
:101F9000007F00D104E040F2673137A0FFF7F6FD83
:101FA00000BF00BFA06928B1A069012802D0A069C4
:101FB000022800D104E04FF45A712FA0FFF7E6FD8C
:101FC00000BF00BFE06928B1E069042802D0E069E1
:101FD000082800D104E040F2693127A0FFF7D6FDC0
:101FE00000BF00BF2069B0F5806F00D204E040F26E
:101FF0006A3121A0FFF7CAFD00BF00BF2068B0F51D
:10200000805F01D0206800B904E040F26B311AA073
:10201000FFF7BCFD00BF06F1400000EB85106168D2
:10202000016006F1440000EB8510A1680160A18AFF
:10203000206940EA014106F1480000EB851001608B
:1020400006F15C0000EB8517E16820680843A16990
:102050000843E169084341F20F310840396841F211
:102060000F329143084338604046BDE8F0810000DC
:1020700000300540003405402E2E5C6472697665A0
:1020800072735C686333325F6C6C5F64726976652F
:10209000725C7372635C686333325F6C6C5F646D37
:1020A000612E63002DE9F04106460D4614464FF0BF
:1020B000000800BF2748864202D02748864200D148
:1020C00004E040F2214125A0FFF760FD00BF00BF02
:1020D000032D00D804E040F2224120A0FFF756FD76
:1020E00000BF14B96FF0020831E000BF2068B0F5FE
:1020F000806F01D0206800B904E040F2274117A0AA
:10210000FFF744FD00BF00BF6068B0F5006F01D06D
:10211000606800B904E04FF4856110A0FFF736FD58
:1021200000BF06F15C0000EB85172088A1880843FA
:1021300000F44060396821F4406108433860A068C9
:1021400020F0030106F1580000EB851001604046C5
:10215000BDE8F08100300540003405402E2E5C645F
:102160007269766572735C686333325F6C6C5F644E
:1021700072697665725C7372635C686333325F6C3C
:102180006C5F646D612E63000146002009B9C01EBA
:1021900003E000220A604A608A60704770B5044616
:1021A0000D4600BF1148844202D01148844200D13C
:1021B00004E040F266410FA0FFF7E8FC00BF00BF5B
:1021C0000DB1012D00D104E040F2674109A0FFF7F5
:1021D000DDFC00BF012D04D1E06A40F00100E062A7
:1021E00003E0E06A20F00100E06270BD00300540CD
:1021F000003405402E2E5C647269766572735C68EB
:102200006333325F6C6C5F6472697665725C7372A3
:10221000635C686333325F6C6C5F646D612E630076
:1022200070B504460E46154600BF1748844202D0DA
:102230001648844200D104E040F27A4114A0FFF72E
:10224000A5FC00BF00BF032E00D804E040F27B4194
:102250000FA0FFF79BFC00BF00BF0DB1012D00D107
:1022600004E040F27C410AA0FFF790FC00BF30027E
:1022700040EA450040F602710840E16A40F6027209
:1022800091430843E06270BD0030054000340540D2
:102290002E2E5C647269766572735C686333325F9C
:1022A0006C6C5F6472697665725C7372635C6863A0
:1022B00033325F6C6C5F646D612E63002DE9F04119
:1022C00005460C461646002700BF1A48854202D034
:1022D0001948854200D104E04FF4F27117A0FFF7CE
:1022E00055FC00BF00BF032C00D804E040F2E5110C
:1022F00012A0FFF74BFC00BF05F1400000EB84107B
:1023000006600DE0781C87B2B7F5805F03D96FF0E7
:102310000700BDE8F08105F1400000EB8410066085
:1023200005F1400000EB84100068B042EAD10020C3
:10233000EFE7000000300540003405402E2E5C64BD
:102340007269766572735C686333325F6C6C5F646C
:1023500072697665725C7372635C686333325F6C5A
:102360006C5F646D612E63002DE9F04105460F46F8
:1023700016464FF0000800BF1A48854202D01A489E
:10238000854200D104E040F21E2118A0FFF7FEFBB9
:1023900000BF00BF032F00D804E040F21F2113A0AC
:1023A000FFF7F4FB00BF05F1480000EB871420683D
:1023B00066F31F4020600EE008F101001FFA80F86C
:1023C000B8F5805F03D96FF00700BDE8F0812068A1
:1023D00066F31F4020602068B6EB104FECD1002060
:1023E000F3E7000000300540003405402E2E5C6409
:1023F0007269766572735C686333325F6C6C5F64BC
:1024000072697665725C7372635C686333325F6CA9
:102410006C5F646D612E63000146002009B9C01E27
:102420000AE000220A604A608A60CA600A610122EA
:102430004A6100228A61CA617047000070B5044693
:102440000D46164600BF1748844202D01648844203
:1024500000D104E04FF4907114A0FFF797FB00BF88
:1024600000BF2DB145F00F10B0F10F1F00D104E0F7
:1024700040F221110DA0FFF789FB00BF00BF0EB194
:10248000012E00D104E04FF4917108A0FFF77EFB0C
:1024900000BF1EB920692843206102E02069A843DB
:1024A000206170BD00300540003405402E2E5C6474
:1024B0007269766572735C686333325F6C6C5F64FB
:1024C00072697665725C7372635C686333325F6CE9
:1024D0006C5F646D612E63002DE9F04107460C4688
:1024E00015461E46DDF81880002229462046FFF7D3
:1024F0006FFB324629462046FFF7E0FE1FFA88F2BE
:1025000029462046FFF730FF012229462046FFF7E3
:102510005FFB01220821384603F0B2FBBDE8F081E1
:1025200010B5044600BF11480068012800D104E03E
:1025300040F2D1110EA0FFF729FB00BF00BF40F20F
:102540003F10204340F23F11884200D104E04FF495
:10255000E97107A0FFF71AFB00BF044814300068B8
:10256000204302491431086010BD000000040140FE
:102570002E2E5C647269766572735C686333325FB9
:102580006C6C5F6472697665725C7372635C6863BD
:1025900033325F6C6C5F65666D2E630010B5044668
:1025A00000BF0CB1012C00D104E04FF45D7103A019
:1025B000FFF7ECFA00BF0C48046010BD2E2E5C64DF
:1025C0007269766572735C686333325F6C6C5F64EA
:1025D00072697665725C7372635C686333325F6CD8
:1025E0006C5F65666D2E63008081204210B50446E5
:1025F00000BF40F23F10204340F23F11884200D11B
:1026000004E040F2C31106A0FFF7C0FA00BF0F4874
:1026100000682040A04201D1012010BD0020FCE74D
:102620002E2E5C647269766572735C686333325F08
:102630006C6C5F6472697665725C7372635C68630C
:1026400033325F6C6C5F65666D2E63001004014071
:1026500050B10649096801600449091D09684160D3
:102660000249083109688160704700005004014048
:102670002DE9FF5F04468946154600200390A8080F
:10268000029005F0030BC846274600BF6348006868
:10269000012800D104E04FF4097161A0FFF776FA38
:1026A00000BF00BF69480068012800D104E040F283
:1026B00025215BA0FFF76AFA00BF00BFB4F5002F29
:1026C00005D36348844203D36248844200D804E0BF
:1026D00040F2262152A0FFF759FA00BF00BF60194F
:1026E000B0F5002F07D360195949884204D3601907
:1026F0005849884200D804E040F2272148A0FFF75B
:1027000045FA00BF00BF04F0030000B904E04FF435
:102710000A7143A0FFF73AFA00BF002640F23F10CB
:10272000FFF7FEFE3D48083000684B4900EA010A09
:102730003A4808300068C943084038490831086001
:10274000081D006820F0700040F01000091D0860AE
:1027500020E058F8040B01C74048006AC0F302614A
:102760003F480068C84044F62061B0FBF1F04FF4E8
:102770008071009001FA06F0009900F013F910F151
:10278000080F02D16FF004000390102101FA06F047
:10279000FFF7C6FE0298411E02910028D9D1BBF175
:1027A000000F2AD0D8F8000001904FEACB014FF07B
:1027B000FF308840019908430190019801C72748DC
:1027C000006AC0F3026126480068C84044F62061F0
:1027D000B0FBF1F04FF48071009001FA06F000991F
:1027E00000F0E0F810F1080F02D16FF00400039040
:1027F000102101FA06F0FFF793FE08480830006840
:102800001549C9430840C9430AEA0101084303497D
:1028100008310860039804B0BDE8F09F000401404F
:102820002E2E5C647269766572735C686333325F06
:102830006C6C5F6472697665725C7372635C68630A
:1028400033325F6C6C5F65666D2E63008081204261
:10285000000C0003FB0F00030000010100400540D5
:102860000080FF1F2DE9F0410446002700BFB4F5AA
:10287000002F00D204E040F216313AA0FFF786F9AB
:1028800000BF00BF04F0030000B904E040F21731BC
:1028900034A0FFF77BF900BF00BF3D480068012866
:1028A00000D104E04FF446712EA0FFF76FF900BF8E
:1028B00000BF38480068012800D104E040F2193117
:1028C00028A0FFF763F900BF40F23F10FFF728FE92
:1028D0002F4808300068304900EA01062C480830CB
:1028E0000068C94308402A49083108600025081DCE
:1028F000006820F0700040F04000091D08600020D2
:1029000020602648006AC0F3026125480068C8407C
:102910003221B0FBF1F84FF4807101FA05F0414625
:1029200000F040F810F1080F00D16F1F102101FADC
:1029300005F0FFF7F5FD16480C30006820F0700038
:1029400013490C310860081F00681349C943084047
:10295000C943314008430E49083108603846BDE894
:10296000F08100002E2E5C647269766572735C687B
:102970006333325F6C6C5F6472697665725C73722C
:10298000635C686333325F6C6C5F65666D2E6300F9
:102990000004014080812042000001010040054008
:1029A0000080FF1FF8B505460C4600200090002669
:1029B00008E00098401C00900098A04202D96FF0F7
:1029C000070604E02846FFF711FE0128F1D100BFF9
:1029D0003046F8BD70B504460D4600BF2CB117480F
:1029E00020431649884200D103E0712114A0FFF76B
:1029F000CDF800BF00BF0DB1012D00D103E0722161
:102A00000FA0FFF7C3F800BF00BF1848006900F02F
:102A1000010000B103E0732109A0FFF7B7F800BF80
:102A2000012D05D111480068A0431049086004E059
:102A30000E48006820430D49086070BD11C5F38F32
:102A40002E2E5C647269766572735C686333325FE4
:102A50006C6C5F6472697665725C7372635C6863E8
:102A600033325F6C6C5F6663672E630000800440E6
:102A700070B504460D4600BF2CB1114820431049E3
:102A8000884200D103E084210EA0FFF77FF800BF49
:102A900000BF0DB1012D00D103E0852109A0FFF792
:102AA00075F800BF012D05D111484068A0431049B9
:102AB000486004E00E48406820430D49486070BDFE
:102AC00079FD0F0F2E2E5C647269766572735C68F7
:102AD0006333325F6C6C5F6472697665725C7372CB
:102AE000635C686333325F6C6C5F6663672E6300A0
:102AF0000080044070B504460D46002660197F280A
:102B000001D9012070BD00F021F8002604E0A119D0
:102B1000480300F013F8761CAE42F8D300F002F838
:102B20000020EFE710B50020FFF738FD00BF0020C0
:102B30000149086000BF10BD0004014010B5044603
:102B40002046FFF78FFE002010BD000010B500BF2B
:102B500040F223100549086043F21020086000BFCE
:102B60000120FFF71BFD002010BD00000004014004
:102B700010B503460C46002102E0605C5854491C25
:102B80009142FAD3002010BD70B504460D4616469A
:102B900000BF4FF48070FFF729FD0128F9D13246BC
:102BA00021462846FFF764FD002070BD2DE9F05F47
:102BB00005460F4614464FF0000B14B96FF0020B98
:102BC000D5E000BF6B48008800F0010000B103E0D1
:102BD000FF2169A0FEF7DAFF00BF00BF4DB1012D54
:102BE00007D0022D05D0032D03D0042D01D0052DD3
:102BF00000D104E04FF480715FA0FEF7C7FF00BF73
:102C000000BF17B1B8B200B104E040F201115AA000
:102C1000FEF7BCFF00BF00BF208810B1208801284C
:102C200000D104E04FF4817153A0FEF7AFFF00BF65
:102C300000BF608810B16088022800D104E040F233
:102C400003114DA0FEF7A2FF00BF00BFA08810B186
:102C5000A088042800D104E04FF4827146A0FEF75A
:102C600095FF00BF00BFE08828B1E088102802D09F
:102C7000E088202800D104E040F205113EA0FEF7D4
:102C800085FF00BF00BF208918B12089B0F5804FB3
:102C900000D104E04FF4837137A0FEF777FF00BF47
:102CA00000BF608910B16089402800D104E040F283
:102CB000071131A0FEF76AFF00BF00BFA08918B15D
:102CC000A089B0F5007F00D104E04FF484712AA000
:102CD000FEF75CFF00BF00BFE08918B1E089B0F5E6
:102CE000805F00D104E040F2091123A0FEF74EFFFF
:102CF00000BF00BF208A18B1208AB0F5004F00D174
:102D000004E04FF485711CA0FEF740FF00BF0026D1
:102D10002BE00120B040384028B320886188084368
:102D2000A1880843E188084361890843A1890843D1
:102D3000E1890843218940EA010A45F27728208A7F
:102D400040EA0A0A48F400480A48001D00EB8510D2
:102D500000EB8609B9F8000020EA08000AEA080139
:102D60000843A9F80000701CC6B2102ED1D35846F3
:102D7000BDE8F09FFC3B05402E2E5C6472697665D1
:102D800072735C686333325F6C6C5F647269766522
:102D9000725C7372635C686333325F6C6C5F677024
:102DA000696F2E630000000070B504460D4600BF39
:102DB0004CB1012C07D0022C05D0032C03D0042CDD
:102DC00001D0052C00D104E040F2F1110CA0FEF777
:102DD000DDFE00BF00BF15B1A8B200B104E04FF4A2
:102DE000F97107A0FEF7D2FE00BF114901EB0410F4
:102DF000B0F80008284008B1012070BD0020FCE7B1
:102E00002E2E5C647269766572735C686333325F20
:102E10006C6C5F6472697665725C7372635C686324
:102E200033325F6C6C5F6770696F2E630000000067
:102E30000030054070B504460D4600BF4CB1012C72
:102E400007D0022C05D0032C03D0042C01D0052C74
:102E500000D104E040F23D210BA0FEF797FE00BF39
:102E600000BF15B1A8B200B104E040F23E2106A0B7
:102E7000FEF78CFE00BF1048102101FB04063088CD
:102E80002843308070BD00002E2E5C647269766528
:102E900072735C686333325F6C6C5F647269766511
:102EA000725C7372635C686333325F6C6C5F677013
:102EB000696F2E63000000000A3805402DE9F041DB
:102EC00004460F46164600BF4CB1012C07D0022C19
:102ED00005D0032C03D0042C01D0052C00D104E034
:102EE00040F277111EA0FEF751FE00BF00BF17B1E0
:102EF000B8B200B104E04FF4BC7119A0FEF746FE71
:102F000000BF00BF0F2E03D9202E02D33B2E00D8C6
:102F100004E040F2791112A0FEF738FE00BF00BFB6
:102F20001B48008800F0010000B104E04FF4BD71BF
:102F30000BA0FEF72BFE00BF00250DE00120A840EE
:102F4000384038B11248801D00EB841000EB850832
:102F5000A8F80060681CC5B2102DEFD3BDE8F08161
:102F60002E2E5C647269766572735C686333325FBF
:102F70006C6C5F6472697665725C7372635C6863C3
:102F800033325F6C6C5F6770696F2E630000000006
:102F9000FC3B054070B504460D4600BF4CB1012C0A
:102FA00007D0022C05D0032C03D0042C01D0052C13
:102FB00000D104E040F22B210BA0FEF7E7FD00BF9B
:102FC00000BF15B1A8B200B104E04FF40B7106A028
:102FD000FEF7DCFD00BF1048102101FB040630881D
:102FE0002843308070BD00002E2E5C6472697665C7
:102FF00072735C686333325F6C6C5F6472697665B0
:10300000725C7372635C686333325F6C6C5F6770B1
:10301000696F2E630000000008380540014600205B
:1030200009B9C01E09E000220A804A80CA800A82CB
:103030000A814A818A81CA818A807047F0B53E4EF2
:10304000367806F00706062E43D2DFE806F00307BF
:103050000A0E1115394E366806603BE0384E0660A0
:1030600038E04FF40046066034E0354E066031E04B
:10307000324E366806602DE02F4EDA363668330F52
:103080002D4E263ED6F80061C6F308222A4EDA36C7
:10309000366806F01F04284E263ED6F80061C6F3B7
:1030A000C01656B9661C264FB7FBF6F6571C7E4372
:1030B0005F1CB6FBF7F606600AE0204E3568661C1A
:1030C000B5FBF6F6571C7E435F1CB6FBF7F60660B1
:1030D00000E000BF00BF1849891F174E263E366A20
:1030E0000E6006680F68C7F30267FE4046600F78FF
:1030F000C7F302170668FE40866006680F68C7F3CC
:103100000247FE40C6600F88C7F302370668FE40DC
:10311000066106680F68C7F30257FE4046610F78E4
:1031200007F007070668FE4086610F88C7F302278D
:103130000668FE40C661F0BD264005400480FF1FC2
:1031400000127A0010B5FEF71BFB00214FF40000BF
:10315000FFF740FC10BD00B585B00121C805FFF7A1
:1031600039FC6846FEF786FB6846FEF70FFB05B0A4
:1031700000BD10B503F070FDA22801D103F0B3FD2E
:1031800010BD000070B505462C680C48844212D969
:103190000B4884420FD800F019F8686809490860A4
:1031A000084600680849086000BF84F3088800BF2B
:1031B0000846006880474FF0FF3070BD0080FF1F59
:1031C000007002201080FF1F1480FF1F10B5FFF752
:1031D000B9FF01F009FC0020FFF7E0F9C72000F07B
:1031E0000DFD10BD10B5C72000F0C0FC0120FFF799
:1031F000D5F94FF47A7001F0FFFBFFF7ACFF10BD7B
:1032000070B5044600260CB9F61E4BE000BF2088BE
:10321000B0F5007F00DA03E0C32123A0FEF7B6FC7F
:1032200000BF2088400900EB4000202101EB400056
:10323000B4F9021088420AD82088400900EB400007
:10324000252101EB4000B4F90210884206D2B4F9FE
:103250000200202802D36FF0020623E060881F4995
:10326000042212FB00152868C0F3080040F2FF1189
:10327000884208D120882860B4F90210184A606892
:1032800042F821000EE020882968C1F30801884235
:1032900006D1B4F90210124A606842F8210001E038
:1032A0006FF00106304670BD2E2E5C647269766543
:1032B00072735C686333325F6C6C5F6472697665ED
:1032C000725C7372635C686333325F6C6C5F696EEF
:1032D00074657272757074732E6300005C10054023
:1032E000C492FF1F10B502490868804710BD000056
:1032F000C492FF1F10B502494868804710BD000006
:10330000C492FF1F10B502498868804710BD0000B5
:10331000C492FF1F10B50249C868804710BD000065
:10332000C492FF1F10B502490869804710BD000014
:10333000C492FF1F10B502494869804710BD0000C4
:10334000C492FF1F10B502498869804710BD000074
:10335000C492FF1F10B50249C869804710BD000024
:10336000C492FF1F10B50249086A804710BD0000D3
:10337000C492FF1F10B50249486A804710BD000083
:10338000C492FF1F10B50249886A804710BD000033
:10339000C492FF1F10B50249C86A804710BD0000E3
:1033A000C492FF1F10B50249086B804710BD000092
:1033B000C492FF1F10B50249486B804710BD000042
:1033C000C492FF1F10B50249886B804710BD0000F2
:1033D000C492FF1F10B50249C86B804710BD0000A2
:1033E000C492FF1F10B50249086C804710BD000051
:1033F000C492FF1F10B50249486C804710BD000001
:10340000C492FF1F10B50249886C804710BD0000B0
:10341000C492FF1F10B50249C86C804710BD000060
:10342000C492FF1F10B50249086D804710BD00000F
:10343000C492FF1F10B50249486D804710BD0000BF
:10344000C492FF1F10B50249886D804710BD00006F
:10345000C492FF1F10B50249C86D804710BD00001F
:10346000C492FF1F10B50249086E804710BD0000CE
:10347000C492FF1F10B50249486E804710BD00007E
:10348000C492FF1F10B50249886E804710BD00002E
:10349000C492FF1F10B50249C86E804710BD0000DE
:1034A000C492FF1F10B50249086F804710BD00008D
:1034B000C492FF1F10B50249486F804710BD00003D
:1034C000C492FF1F10B50249886F804710BD0000ED
:1034D000C492FF1F10B50249C86F804710BD00009D
:1034E000C492FF1F10B50249D1F88000804710BD7B
:1034F000C492FF1F10B50249D1F88400804710BD67
:10350000C492FF1F10B50249D1F88800804710BD52
:10351000C492FF1F10B50249D1F88C00804710BD3E
:10352000C492FF1F10B50249D1F89000804710BD2A
:10353000C492FF1F10B50249D1F89400804710BD16
:10354000C492FF1F10B50249D1F89800804710BD02
:10355000C492FF1F10B50249D1F89C00804710BDEE
:10356000C492FF1F10B50249D1F8A000804710BDDA
:10357000C492FF1F10B50249D1F8A400804710BDC6
:10358000C492FF1F10B50249D1F8A800804710BDB2
:10359000C492FF1F10B50249D1F8AC00804710BD9E
:1035A000C492FF1F10B50249D1F8B000804710BD8A
:1035B000C492FF1F10B50249D1F8B400804710BD76
:1035C000C492FF1F10B50249D1F8B800804710BD62
:1035D000C492FF1F10B50249D1F8BC00804710BD4E
:1035E000C492FF1F10B50249D1F8C000804710BD3A
:1035F000C492FF1F10B50249D1F8C400804710BD26
:10360000C492FF1F10B50249D1F8C800804710BD11
:10361000C492FF1F10B50249D1F8CC00804710BDFD
:10362000C492FF1F10B50249D1F8D000804710BDE9
:10363000C492FF1F10B50249D1F8D400804710BDD5
:10364000C492FF1F10B50249D1F8D800804710BDC1
:10365000C492FF1F10B50249D1F8DC00804710BDAD
:10366000C492FF1F10B50249D1F8E000804710BD99
:10367000C492FF1F10B50249D1F8E400804710BD85
:10368000C492FF1F10B50249D1F8E800804710BD71
:10369000C492FF1F10B50249D1F8EC00804710BD5D
:1036A000C492FF1F10B50249D1F8F000804710BD49
:1036B000C492FF1F10B50249D1F8F400804710BD35
:1036C000C492FF1F10B50249D1F8F800804710BD21
:1036D000C492FF1F10B50249D1F8FC00804710BD0D
:1036E000C492FF1F10B50249D1F80001804710BDF8
:1036F000C492FF1F10B50249D1F80401804710BDE4
:10370000C492FF1F10B50249D1F80801804710BDCF
:10371000C492FF1F10B50249D1F80C01804710BDBB
:10372000C492FF1F10B50249D1F81001804710BDA7
:10373000C492FF1F10B50249D1F81401804710BD93
:10374000C492FF1F10B50249D1F81801804710BD7F
:10375000C492FF1F10B50249D1F81C01804710BD6B
:10376000C492FF1F10B50249D1F82001804710BD57
:10377000C492FF1F10B50249D1F82401804710BD43
:10378000C492FF1F10B50249D1F82801804710BD2F
:10379000C492FF1F10B50249D1F82C01804710BD1B
:1037A000C492FF1F10B50249D1F83001804710BD07
:1037B000C492FF1F10B50249D1F83401804710BDF3
:1037C000C492FF1F10B50249D1F83801804710BDDF
:1037D000C492FF1F10B50249D1F83C01804710BDCB
:1037E000C492FF1F10B50249D1F84001804710BDB7
:1037F000C492FF1F10B50249D1F84401804710BDA3
:10380000C492FF1F10B50249D1F84801804710BD8E
:10381000C492FF1F10B50249D1F84C01804710BD7A
:10382000C492FF1F10B50249D1F85001804710BD66
:10383000C492FF1F10B50249D1F85401804710BD52
:10384000C492FF1F10B50249D1F85801804710BD3E
:10385000C492FF1F10B50249D1F85C01804710BD2A
:10386000C492FF1F10B50249D1F86001804710BD16
:10387000C492FF1F10B50249D1F86401804710BD02
:10388000C492FF1F10B50249D1F86801804710BDEE
:10389000C492FF1F10B50249D1F86C01804710BDDA
:1038A000C492FF1F10B50249D1F87001804710BDC6
:1038B000C492FF1F10B50249D1F87401804710BDB2
:1038C000C492FF1F10B50249D1F87801804710BD9E
:1038D000C492FF1F10B50249D1F87C01804710BD8A
:1038E000C492FF1F10B50249D1F88001804710BD76
:1038F000C492FF1F10B50249D1F88401804710BD62
:10390000C492FF1F10B50249D1F88801804710BD4D
:10391000C492FF1F10B50249D1F88C01804710BD39
:10392000C492FF1F10B50249D1F89001804710BD25
:10393000C492FF1F10B50249D1F89401804710BD11
:10394000C492FF1F10B50249D1F89801804710BDFD
:10395000C492FF1F10B50249D1F89C01804710BDE9
:10396000C492FF1F10B50249D1F8A001804710BDD5
:10397000C492FF1F10B50249D1F8A401804710BDC1
:10398000C492FF1F10B50249D1F8A801804710BDAD
:10399000C492FF1F10B50249D1F8AC01804710BD99
:1039A000C492FF1F10B50249D1F8B001804710BD85
:1039B000C492FF1F10B50249D1F8B401804710BD71
:1039C000C492FF1F10B50249D1F8B801804710BD5D
:1039D000C492FF1F10B50249D1F8BC01804710BD49
:1039E000C492FF1F10B50249D1F8C001804710BD35
:1039F000C492FF1F10B50249D1F8C401804710BD21
:103A0000C492FF1F10B50249D1F8C801804710BD0C
:103A1000C492FF1F10B50249D1F8CC01804710BDF8
:103A2000C492FF1F10B50249D1F8D001804710BDE4
:103A3000C492FF1F10B50249D1F8D401804710BDD0
:103A4000C492FF1F10B50249D1F8D801804710BDBC
:103A5000C492FF1F10B50249D1F8DC01804710BDA8
:103A6000C492FF1F10B50249D1F8E001804710BD94
:103A7000C492FF1F10B50249D1F8E401804710BD80
:103A8000C492FF1F10B50249D1F8E801804710BD6C
:103A9000C492FF1F10B50249D1F8EC01804710BD58
:103AA000C492FF1F10B50249D1F8F001804710BD44
:103AB000C492FF1F10B50249D1F8F401804710BD30
:103AC000C492FF1F10B50249D1F8F801804710BD1C
:103AD000C492FF1F10B50249D1F8FC01804710BD08
:103AE000C492FF1F10B5002106480EF079FE06496A
:103AF00008600846006810B94FF0FF3010BD002084
:103B0000FCE70000D43B01004880FF1F10B50021F6
:103B100006480EF065FE064908600846006810B9C0
:103B20004FF0FF3010BD0020FCE700006C3F0100AB
:103B3000888DFF1F10B50220094908600A4601213F
:103B400008480EF075FE084908600846006830B164
:103B50000121054800680EF081FE044600BF10BD3B
:103B60008092FF1FB43F01007C92FF1F10B50446F6
:103B700004F0010048B100BF40F223101A49086068
:103B800043F21020086000BF00BF04F0020028B11B
:103B900000BF16481649086100BF00BF04F00400CA
:103BA00030B100BF4AF201501249088000BF00BF87
:103BB00004F0100018B14AF2085000F015FD04F0AE
:103BC000400018B14AF2035000F00EFD04F08000EE
:103BD00040B100BF772008490860074908310860F4
:103BE00000BF00BF10BD0000000401400100A5A5FA
:103BF00000800440FC3B05400408054010B5044625
:103C000004F0010028B100BF00201949086000BF7E
:103C100000BF04F0020028B100BF16481649086131
:103C200000BF00BF04F0040030B100BF4FF42540D6
:103C30001249088000BF00BF04F0100018B14AF21A
:103C4000085000F0C3FC04F0400018B14AF20350E1
:103C500000F0BCFC04F0800040B100BF76200849B1
:103C6000086007490831086000BF00BF10BD0000B0
:103C7000000401400000A5A500800440FC3B054075
:103C80000408054070B503460024002010E00E5CD7
:103C9000451C4D5D46EA0526851C4D5D46EA0546F8
:103CA000C51C4D5D46EA056543F82450641C001DA3
:103CB0009042ECD370BD70B503461446002200203C
:103CC00015E011F822501D5431F82250C5F3072693
:103CD000451C5E5551F82250C5F30746851C5E55BC
:103CE00051F822502D0EC61C9D55521C001DA0429D
:103CF000E7D370BD2DE9FC4104460E4600250027A0
:103D00002088C0F3C505382D02D2C5F1380001E086
:103D1000C5F178000746082221466846FFF7CBFF29
:103D20003A460849204600F00BFC08226946204626
:103D300000F006FC102204F108013046FFF7BBFF3B
:103D4000BDE8FC81958DFF1F0021016041600549A0
:103D50008160054AC260CA430261034AD24342619C
:103D6000704700000123456789ABCDEF2DE9F04393
:103D7000C0B080468946D8F80040D8F80450D8F83A
:103D80000860D8F80C70402249466846FFF77AFF71
:103D900005EA060027EA0501084300990844FE49A0
:103DA00008440444E00140EA54642C4404EA050059
:103DB00026EA0401084301990844F84908440744E5
:103DC000380340EA1757274407EA040025EA0701A9
:103DD000084302990844F24908440644700440EA42
:103DE000D6363E4406EA070024EA06010843039952
:103DF0000844EC4908440544A80540EA95253544A3
:103E000005EA060027EA0501084304990844E64943
:103E100008440444E00140EA54642C4404EA0500E8
:103E200026EA0401084305990844E0490844074488
:103E3000380340EA1757274407EA040025EA070138
:103E4000084306990844DA4908440644700440EAE5
:103E5000D6363E4406EA070024EA060108430799DD
:103E60000844D44908440544A80540EA952535444A
:103E700005EA060027EA0501084308990844CE49E7
:103E800008440444E00140EA54642C4404EA050078
:103E900026EA0401084309990844C849084407442C
:103EA000380340EA1757274407EA040025EA0701C8
:103EB00008430A990844A0F524404F38064470048A
:103EC00040EAD6363E4406EA070024EA06010843E3
:103ED0000B990844BA4908440544A80540EA9525C9
:103EE000354405EA060027EA050108430C99084411
:103EF000B44908440444E00140EA54642C4404EA10
:103F0000050026EA040108430D990844AE49084417
:103F10000744380340EA1757274407EA040025EA14
:103F2000070108430E990844A84908440644700450
:103F300040EAD6363E4406EA070024EA0601084372
:103F40000F990844A24908440544A80540EA95256C
:103F5000354405EA070026EA0701084301990844A9
:103F60009C4908440444600140EAD4642C4404EAB7
:103F7000060025EA060108430699084496490844C4
:103F80000744780240EAD757274407EA050024EAA5
:103F9000050108430B990844904908440644B003BE
:103FA00040EA96463E4406EA040027EA0401084334
:103FB000009908448A4908440544280540EA153513
:103FC000354405EA070026EA070108430599084435
:103FD000844908440444600140EAD4642C4404EA5F
:103FE000060025EA060108430A9908447E49084468
:103FF0000744780240EAD757274407EA050024EA35
:10400000050108430F990844784908440644B00361
:1040100040EA96463E4406EA040027EA04010843C3
:1040200004990844724908440544280540EA1535B6
:10403000354405EA070026EA0701084309990844C0
:104040006C4908440444600140EAD4642C4404EA06
:10405000060025EA060108430E990844664908440B
:104060000744780240EAD757274407EA050024EAC4
:104070000501084303990844604908440644B00315
:1040800040EA96463E4406EA040027EA0401084353
:10409000089908445A4908440544280540EA15355A
:1040A000354405EA070026EA070108430D9908444C
:1040B000544908440444600140EAD4642C4404EAAE
:1040C000060025EA06010843029908444E490844BF
:1040D0000744780240EAD757274407EA050024EA54
:1040E0000501084307990844484908440644B003B9
:1040F00040EA96463E4406EA040027EA04010843E3
:104100000C990844424908440544280540EA1535FD
:10411000354485EA06007840059908443D4908443D
:104120000444200140EA14742C4484EA05007040E1
:1041300008990844384908440744F80240EA5757A8
:10414000274487EA040068400B990844334908442F
:104150000644300440EA16463E4486EA07006040C2
:104160000E9908442E4908440544E80540EA5525BF
:10417000354485EA060078400199084429490844F5
:104180000444200140EA14742C4484EA0500704081
:1041900004990844244949E078A46AD756B7C7E887
:1041A000DB702024EECEBDC1AF0F7CF52AC6874759
:1041B000134630A8019546FDD8988069AFF7448B27
:1041C000BED75C892211906B937198FD8E4379A6BE
:1041D0002108B44962251EF640B340C0515A5E26FC
:1041E000AAC7B6E95D102FD65314440281E6A1D8C0
:1041F000C8FBD3E7E6CDE121D60737C3870DD5F459
:10420000ED145A4505E9E3A9F8A3EFFCD9026F675D
:104210008A4C2A8D4239FAFF81F6718722619D6DA1
:104220000C38E5FD44EABEA4A9CFDE4B08440744A0
:10423000F80240EA5757274487EA04006840079984
:104240000844A54908440644300440EA16463E4462
:1042500086EA070060400A990844A04908440544DA
:10426000E80540EA5525354485EA060078400D9971
:1042700008449B4908440444200140EA14742C4437
:1042800084EA0500704000990844964908440744B0
:10429000F80240EA5757274487EA04006840039928
:1042A0000844914908440644300440EA16463E4416
:1042B00086EA07006040069908448C490844054492
:1042C000E80540EA5525354485EA06007840099915
:1042D0000844874908440444200140EA14742C44EB
:1042E00084EA050070400C99084482490844074458
:1042F000F80240EA5757274487EA040068400F99BC
:1043000008447D4908440644300440EA16463E44C9
:1043100086EA070060400299084478490844054449
:10432000E80540EA5525354465EA070070400099E4
:104330000844734908440444A00140EA94642C44AE
:1043400064EA06006840079908446E490844074437
:10435000B80240EA9757274467EA050060400E9983
:104360000844694908440644F00340EA56463E447E
:1043700066EA040078400599084464490844054405
:10438000680540EAD525354465EA070070400C9978
:1043900008445F4908440444A00140EA94642C4462
:1043A00064EA06006840039908445A4908440744EF
:1043B000B80240EA9757274467EA050060400A9927
:1043C0000844554908440644F00340EA56463E4432
:1043D00066EA0400784001990844504908440544BD
:1043E000680540EAD525354465EA0700704008991C
:1043F00008444B4908440444A00140EA94642C4416
:1044000064EA060068400F99084446490844074496
:10441000B80240EA9757274467EA050060400699CA
:104420000844414908440644F00340EA56463E44E5
:1044300066EA040078400D9908443C490844054464
:10444000680540EAD525354465EA070070400499BF
:104450000844374908440444A00140EA94642C44C9
:1044600064EA060068400B9908443249084407444E
:10447000B80240EA9757274467EA0500604002996E
:1044800008442D4908440644F00340EA56463E4499
:1044900066EA04007840099908442849084405441C
:1044A000680540EAD5253544D8F800002044C8F80E
:1044B0000000D8F804002844C8F80400D8F8080020
:1044C0003044C8F80800D8F80C003844C8F80C008C
:1044D00040B0BDE8F0830000604BBBF670BCBFBECF
:1044E000C67E9B28FA27A1EA8530EFD4051D8804F3
:1044F00039D0D4D9E599DBE6F87CA21F6556ACC467
:10450000442229F497FF2A43A72394AB39A093FCB4
:10451000C3595B6592CC0C8F7DF4EFFFD15D848530
:104520004F7EA86FE0E62CFE144301A3A111084EB4
:10453000827E53F735F23ABDBBD2D72A91D386EBB0
:104540002DE9F04704460F4615460026B046B14611
:104550002088C0F3C508C8F14009206800EBC500F9
:1045600020602068B0EBC50F02D26068401C60601C
:10457000606800EB557060604D451CD304F1180174
:1045800001EB08004A463946FBF726FF04F1180103
:1045900004F10800FFF7EAFB4E4605E0B91904F103
:1045A0000800FFF7E3FB403606F14000A842F5D9CA
:1045B0004FF0000800E00026AA1BB91904F1180307
:1045C00003EB0800FBF708FFBDE8F0870449098802
:1045D000814341F42541034AA2F8FE1370470000CD
:1045E000FE43054000400540034909880143034A52
:1045F000A2F8FE1370470000FE430540004005404E
:1046000010B580200549088000220121044801F0EE
:1046100037FB01210348FDF7DBFB10BDE48DFF1FD5
:1046200000D001400030054010B5002201210448AF
:1046300001F026FB08210348FDF7CAFB10BD00006E
:1046400000100240003005402DE9FC4704460F46AB
:1046500090469946DDE90AA54FF0FF36104884429E
:1046600008D01048844205D00F48844202D00F4839
:10467000844208D14B46424639462046CDE900A542
:1046800000F016F806463EB14B46424639462046F3
:10469000009500F0F1F806463046BDE8FC870000C2
:1046A00000D0014000D4014000100240001402403C
:1046B0002DE9FF4F8FB081465E4B0FCB08AC0FC486
:1046C0006FF00200079000BF5B48814508D05B484F
:1046D000814505D05A48814502D05A48814500D1CC
:1046E00004E040F29F2158A0FDF750FA00BF109D52
:1046F000DDF844A0129800287ED01C980028FBD03A
:10470000002DF9D0BAF1000FF6D0D9F8140000F45A
:10471000600400BF5CB1B4F5001F08D0B4F5800F91
:1047200005D0B4F5C00F02D0B4F5400F00D104E0BD
:1047300040F2A62144A0FDF729FA00BF600D08A9A8
:1047400031F810400AFB04F04000B5FBF0F0A0F196
:10475000010BBBF1FF0F69D80220A0FB043200203F
:104760004FF0010C1BEB0C0C4041A3FB0C1E02FB99
:104770000CE203FB00220020A1FB0A7302FB0A32B9
:1047800001FB00284FF480710022A7FB010308FB06
:10479000013107FB02112A460023CDE90401FBF792
:1047A0006BFE8021461A7F2E40D81298C0F800B0C8
:1047B0001C9806601D98B8B349004FF0000C3A46AB
:1047C000A2FB010E08FB01E107FB0C1807460020C5
:1047D0008022B21840EB00030021A2FB050C03FB72
:1047E00005C302FB0131CDE90C0138464146FCF717
:1047F000ACFBCDE9020100E018E0DDE90C01FCF7BB
:10480000A4FBCDE90001DDE90223FCF722FBCDE9A1
:104810000401FCF7E9FB4FF07E510690FCF7FAF932
:104820000E901D990E98086000200790079813B00D
:10483000BDE8F08FC43B010000D0014000D401402E
:1048400000100240001402402E2E5C6472697665EE
:1048500072735C686333325F6C6C5F647269766537
:10486000725C7372635C686333325F6C6C5F757328
:104870006172742E630000002DE9FF4F8DB0054674
:104880009B46484B0FCB09AC0FC46FF0020007905A
:1048900000BF4548854208D04448854205D0444879
:1048A000854202D04348854200D104E04FF4E771CD
:1048B00041A0FDF76BF900BFDDF838A00F9EBBF1FA
:1048C000000F6BD0BAF1000F68D0002E66D0686977
:1048D00000F4600400BF5CB1B4F5001F08D0B4F56B
:1048E000800F05D0B4F5C00F02D0B4F5400F00D151
:1048F00004E040F2D91130A0FDF748F900BF600D87
:1049000009A931F810400AEB8A00410006FB04F0C7
:104910004000B1FBF0F0401D0A21B0FBF1F0A0F126
:104920000109B9F1FF0F39D8CBF800901A9898B364
:104930000220A0FB041200204FF0010C19EB0C0C1C
:1049400040EB0003A1FB0C0E02FB0CE201FB032277
:1049500000210346A3FB067C02FB06C200FB0128E4
:1049600038464146FCF7F1FACDE902015046FCF722
:10497000DFFACDE90001DDE90223FCF76AFACDE9AF
:104980000401FCF731FB4FF07E510690FCF742F931
:1049900008901A990898086000200790079811B0AD
:1049A000BDE8F08FB43B010000D0014000D40140CD
:1049B00000100240001402402E2E5C64726976657D
:1049C00072735C686333325F6C6C5F6472697665C6
:1049D000725C7372635C686333325F6C6C5F7573B7
:1049E0006172742E6300000000204FF0E021086126
:1049F0004861886170470000F0B501464FF0FF3410
:104A0000A9B3B1F57A7F32D84FF47A70B0FBF1F0E8
:104A1000184A10601848006AC0F30263174800681B
:104A2000D840B0FBF1F2501EB0F1807F01D30120DD
:104A30001BE0501E4FF0E023586158170F23002849
:104A400004DB1D072E0E0E4D2E5406E01D072F0E03
:104A50000C4D00F00F06361FAF5500BF00204FF081
:104A6000E023986107201861002000B90024204647
:104A7000F0BD00001880FF1F004005400080FF1FB0
:104A800000E400E018ED00E070B52B4D2D6805F056
:104A900001051DB1294D2A4E356002E0294D284EF1
:104AA0003560294D2D7805F00700062840D2DFE853
:104AB00000F003080C11151A214D2D68234E3560A6
:104AC00037E0234D214E356033E04FF400451F4E53
:104AD00035602EE01E4D1D4E35602AE04FF4004536
:104AE0001A4E356025E0184DDA352D68C5F30822D9
:104AF000154D263DD5F800512B0F134DDA352D6895
:104B000005F01F04104D263DD5F8005105F0800535
:104B10000DB90F4901E00A4D2968651CB1FBF5F597
:104B2000561C75435E1CB5FBF6F5084E356000E07B
:104B300000BF00BF70BD0000840601400024F400E7
:104B40000480FF1F002D3101264005400080FF1F1B
:104B500000127A0000B5FFF797FF002001490860B6
:104B600000BD000008ED00E010B50122402104481E
:104B700001F086F801210348FDF72AF910BD000075
:104B800000D001400034054010B501224021044806
:104B900001F076F808210348FDF71AF910BD00006E
:104BA00000100240003405405BE02E480068401CC5
:104BB0002C4908602C4800222C4BD0E9006130467B
:104BC000FCF7D5F804460022294BFCF7DDF910D29A
:104BD0000121084603F054FA2348D0E90043224655
:104BE00024A001F02DFB03F05FF901202B4948655B
:104BF00002E00020294948652948C06B2949096815
:104C0000401A032802D203F0A5F801E003F034F9BA
:104C100022480068012819D1002003F003FA01207E
:104C20002149486021A001F00BFB02E064200DF057
:104C300077FD1A4800680128F8D0022003F0F2F945
:104C40000020194948601FA001F0FAFA1348806C4F
:104C500020B932221F49081F03F090F964200DF09B
:104C60005FFDA2E75080FF1FF081FF1F00408F40D3
:104C70000064A9405B706F7765725DB5E7B3D8B526
:104C8000E7D1B9B9FDB5CD2CC7EBB3E4B5E72CB589
:104C9000E7D1B9CEAA2566560A000000A080FF1F02
:104CA0006080FF1F4C80FF1F2895FF1F5B6C6564B1
:104CB00020626565705DD0DDC3DFD7BCB1B8CDEAD9
:104CC000B1CF0A005B6C656420626565705DBBBD39
:104CD000D0D10A00C489FF1F86B0002400200590AF
:104CE000002714216846FBF7FFFB0026012003F094
:104CF000DDFD41F288300DF013FD8E4A8EA18F4804
:104D000001F0AEFA8B4A8EA1934801F0A9FA894AC4
:104D100092A1974801F0A4FA864A96A1994801F019
:104D20009FFA844A98A19248403001F099FA814A4A
:104D3000403A81A1684601F093FA7E484038FBF77B
:104D400008FC083846B2002E07DD0DEB060292A1E2
:104D50007848403801F084FA04E092A17548403860
:104D600001F07EFA734A403A92A1984801F078FA2D
:104D7000002009F0BFFC9648006C012803D195A0E3
:104D800006F010FA02E096A006F00CFA05A803F06F
:104D90007BFB0598032803D04EF660200DF010FB36
:104DA00064487E3005F0DEFA04468948006C01282C
:104DB00008D18EA00BF0A8FF044634B90020844926
:104DC000086402E08CA00BF09FFF012009F048FC72
:104DD000002003F027F90EF0EFFC40F2DC500DF05C
:104DE0009FFC00274FF480618548FBF77DFBA0E026
:104DF00001200DF095FC01F02FFFA32805D1814D76
:104E000028460BF001FC0CF0FFFC7F4800680128ED
:104E100000D18EE06E484069012820D100207B49F6
:104E200088637BA006F0BEF94EF660200DF0C8FA4C
:104E300004461CB900206649486104E07948016EC7
:104E400079A006F0AFF9012009F00AFC012009F071
:104E500051FC00274FF480616948FBF745FB5C4833
:104E6000406F012808D10220594948677AA006F00E
:104E700099F980A00CF00AF900273946604800F043
:104E800091FD07465E48FBF764FB40B3002009F044
:104E900031FC7CA001F0D4F9594801F087FF394674
:104EA000574800F07FFD07467AA001F0C9F9544940
:104EB0007BA001F0C5F97BA001F0C2F9504805F0D4
:104EC0007FF8012009F016FC00274FF480614C4860
:104ED000FBF70AFB39464A4800F064FD07464B4899
:104EE000806942F21071884215D9002047498861D3
:104EF00009F000FC6E48806A012801D101F000FF32
:104F000000274FF480613E48FBF7EEFA39463C48F3
:104F100000F048FD07463C480068012801D10CF02C
:104F200073FC0DF0E7FC63480068401C61490860B1
:104F300000BF5DE78481FF1F257300007C83FF1F96
:104F40002F3861646337383631386434362F25732F
:104F50002F696E7300000000FC84FF1F2F6D6178C5
:104F6000646174615F6C6F672F25732F0000000010
:104F70000C8AFF1F2F776176655F666F726D2F2534
:104F8000732F00000C8BFF1F2F72756E5F6C6F67A5
:104F90002F25732F0000000030323130303225735E
:104FA00000000000303231303032323131323030B6
:104FB000313000002F76312E312F25732F625F6440
:104FC00065766963652F646174610000FC88FF1F6A
:104FD000A080FF1FC9E8B1B8BFAABBFA0D0A000044
:104FE000C9E8B1B8BBBDD0D10D0A000073746172BD
:104FF000745F75700000000077616B655F7570000D
:1050000030E5FF1F01C001005895FF1F6080FF1FA2
:10501000D5FDD4DAD6D8D0C2C1ACBDD3CDF8C2E765
:105020000D0A00001082FF1FCDF8C2E7C1ACBDD34E
:10503000CAA7B0DCA3ACB9D8B1D5CDF8C2E7C4A338
:10504000BFE9A3ACB5C82564C3EBBAF3D4D9D6D8AD
:10505000C1AC0D0A00000000D0C2C8CECEF1BFAA7C
:10506000C6F4A3ACC7E5B3FD3630D7E9CAFDBEDD53
:105070000D0A00007461736B5F6C6F675F636C6532
:1050800061720000B4AEBFDABDD3CAD5B5BDD0C51C
:10509000CFA20A00BDD3CAD5CDEAB1CF0A00000025
:1050A00025730A00B4F2D3A1CDEAB1CF0A00000003
:1050B000C882FF1F908DFF1F28490968491C274A95
:1050C000116027490968491C254A11601146896801
:1050D000491C91601146496B491C51631146C968CE
:1050E000491CD16011468969491C91611146C96901
:1050F000491CD1611146896A491C916211460968AF
:105100004FF47A72B1FBF2F302FB131121BB144985
:105110004968491C124A516011460969491C1161CC
:1051200011464969491C51611146096A491C1162BD
:105130001146496A491C51621146C96A491CD1622B
:105140001146096B491C11631146896B491C916317
:105150001146C96B491CD163704700008492FF1F40
:105160006080FF1F2DE9FC4704460F469046994694
:10517000DDE90AA54FF0FF361048844208D01048F8
:10518000844205D00F48844202D00F48844208D19F
:105190004B46424639462046CDE900A500F016F8B8
:1051A00006463EB14B46424639462046009500F041
:1051B000E3F806463046BDE8FC87000000D0014019
:1051C00000D4014000100240001402402DE9FF4FBE
:1051D0008BB006466FF00200079000BF564886422B
:1051E00008D05648864205D05548864202D05548D8
:1051F000864200D104E040F20F2153A0FCF7C6FC28
:1052000000BF0C9CDDF834900E9800287ED01898D2
:105210000028FBD0002C79D0B9F1000F76D0F068CF
:1052200000F4004008B1012000E0002083464FEA6E
:10523000C900CBF102014843B4FBF0F0A0F1010A30
:10524000BAF1FF0F73D80021DBF1020261EB01001C
:1052500008238C46A2FB031E00FB03E002FB0C03A9
:1052600000204FF0010C1AEB0C0C4041A1FB0C2E5E
:1052700003FB0CE301FB00310020A2FB097301FBDF
:10528000093102FB00184FF48071A7FB012308FBD2
:10529000013107FB0010CDE9042022460023DDE99F
:1052A0000401FBF7E9F88021451A7F2D3FD80E98BD
:1052B000C0F800A018980560199840B34900002074
:1052C0003A46A2FB01CE08FB01E107FB0018674646
:1052D0008022AA1840EB00030021A2FB040C03FB70
:1052E00004C302FB0131CDE9080138464146FBF712
:1052F0002CFECDE90201DDE90801FBF726FECDE930
:105300000001DDE90223FBF7A4FD01E00FE00CE062
:10531000CDE90401FBF768FE4FF07E510690FBF7E4
:1053200079FC0A9019990A9808600020079007985C
:105330000FB0BDE8F08F000000D0014000D4014064
:1053400000100240001402402E2E5C6472697665E3
:1053500072735C686333325F6C6C5F64726976652C
:10536000725C7372635C686333325F6C6C5F75731D
:105370006172742E630000002DE9FF4F89B004466E
:105380009B466FF00200079000BF4048844208D05F
:105390003F48844205D03F48844202D03E48844280
:1053A00000D104E040F25B113CA0FCF7EFFB00BF32
:1053B000DDF828900B9DBBF1000F63D0B9F1000F11
:1053C00060D0002D5ED0E06800F4004008B10120FC
:1053D00000E000208246E800CAF10201484309EBE0
:1053E00089014900B1FBF0F0401D0A21B0FBF1F04A
:1053F000461EFF2E46D8CBF800601698F0B3002169
:1054000008460B46DAF1020C60EB03000823002289
:10541000ACFB031E00FB03E00CFB020200204FF07C
:10542000010C16EB0C0C40410B46A3FB0C1E02FBBF
:105430000CE203FB00220023A1FB057C02FB05C25A
:1054400001FB032838464146FBF77FFDCDE9020109
:105450004846FBF76DFDCDE90001DDE90223FBF7CE
:10546000F8FCCDE90401FBF7BFFD4FF07E5106903B
:10547000FBF7D0FB08901699089800E000E0086060
:105480000020079007980DB0BDE8F08F00D00140D4
:1054900000D4014000100240001402402E2E5C6433
:1054A0007269766572735C686333325F6C6C5F64DB
:1054B00072697665725C7372635C686333325F6CC9
:1054C0006C5F75736172742E6300000010B58EB04E
:1054D00001218803FDF77EFA0121C803FDF77AFA5E
:1054E00001214804FDF776FA06A8FCF795FF4FF472
:1054F0008050069001200A9080200B900020099097
:105500005C4808905C48079000200C9004200D90A7
:1055100006AA00215948FCF70FFD0446002C62D171
:1055200003A8FCF731FE4FF4806003900020049044
:105530005348059003AA00215048FCF7B3FD504999
:105540000798086008984860DDE90A0140EA0140D0
:105550004B49886008468861DDE90C0108430999D8
:1055600008430699084303990843049908434449AA
:10557000C861012200214148FCF752FE01213F4849
:10558000FCF70CFE40F23F113E48FCF775F8202076
:10559000ADF804000520ADF806003B48029001A8D4
:1055A000FDF72EFEBDF9060000F08AFEBDF90600EB
:1055B0000D2100F0A5FEBDF9060000F08FFE40F2BF
:1055C000171130482038FCF757F801212B48FCF719
:1055D0003DFC012211462948FCF730FF0122002141
:1055E0002648FCF7F5FA06A8FCF716FF4FF48050A2
:1055F000069001200A9080200B90002009901E4800
:10560000801E08902148079001200C9000200D90EA
:1056100006AA00211E48FCF78FFC044634BB242058
:10562000ADF804000620ADF806001A48029001A863
:10563000FDF7E6FDBDF9060000F042FEBDF90600EB
:105640000D2100F05DFEBDF9060000F047FE4FF4AD
:105650008C710C481038FCF70FF801210C48FCF74E
:10566000F5FB012211460A48FCF7E8FE20460EB081
:1056700010BD000070E9FF1F06D00140003005405A
:10568000F0EDFF1F3408014001460000E68DFF1FCA
:1056900000340540694B000010B50321064800F0B6
:1056A0005BFB012802D1044800F0EAFB0B21024811
:1056B00000F08EFA10BD000000D0014010B50022AD
:1056C0004821044800F0DCFA4021024800F080FA4A
:1056D00010BD000000D0014000B593B0FFF7F6FE0A
:1056E00001A8FDF79BFC0020ADF806004020ADF8B6
:1056F0000E0001AA80210020FDF758FA2122802106
:105700000020FDF7DBFB0220ADF806004020ADF8DD
:105710000E0001AA01210846FDF748FA20220121C6
:105720000846FDF7CBFB01210806FDF7A1F908A803
:1057300000F06EFD002009904FF400600A904FF4D5
:10574000E1300B904FF400400F90002208A91F4851
:1057500000F05CFC08B100BFFEE70820ADF81A00BD
:105760004FF48B70ADF818001948079006A8FDF7A4
:1057700047FDBDF91A0000F0A3FDBDF91A000D2187
:1057800000F0BEFDBDF91A0000F0A8FD0720ADF83D
:105790001A0040F21910ADF818000E48079006A83C
:1057A000FDF72EFDBDF91A0000F08AFDBDF91A00C3
:1057B0000D2100F0A5FDBDF91A0000F08FFD0122BA
:1057C0002C21024800F05CFA13B000BD00D001406B
:1057D00099560000BD56000010B58EB00121880317
:1057E000FDF7F8F80121C803FDF7F4F8012148049A
:1057F000FDF7F0F806A8FCF70FFE4FF48050069076
:1058000001200A9080020B90002009905C480890CB
:105810005C48079000200C9004200D9006AA0321FC
:105820005948FCF789FB0446002C62D103A8FCF719
:10583000ABFC4FF480600390002004905348059027
:1058400003AA03215048FCF72DFC50490798086033
:1058500008984860DDE90A0140EA01404B49886048
:1058600008468861DDE90C01084309990843069957
:10587000084303990843049908434449C861012235
:1058800003214148FCF7CCFC01213F48FCF786FC92
:1058900040F23F113E48FBF7EFFE2320ADF8040035
:1058A0001120ADF806003B48029001A8FDF7A8FCC6
:1058B000BDF9060000F004FDBDF906000B2100F063
:1058C0001FFDBDF9060000F009FD40F2211130482E
:1058D0001438FBF7D1FE01212B48FCF7B7FA01225F
:1058E00008212948FCF7AAFD012203212648FCF7DC
:1058F0006FF906A8FCF790FD4FF480500690012048
:105900000A9080020B90002009901E48801E08908B
:105910002148079001200C9000200D9006AA032139
:105920001E48FCF709FB044634BB2720ADF80400F1
:105930001220ADF806001A48029001A8FDF760FC9D
:10594000BDF9060000F0BCFCBDF906000B2100F01B
:10595000D7FCBDF9060000F0C1FC4FF491710C4872
:10596000001FFBF789FE01210C48FCF76FFA0122AA
:1059700008210A48FCF762FD20460EB010BD000069
:10598000F0E9FF1F061002400030054010EEFF1F37
:105990003408014029460000668EFF1F0034054090
:1059A000894B00002DE9F04105460C4600260321F5
:1059B0003148FCF781FA0646C6F580602F49086039
:1059C000084600682E490968884253D02B48006871
:1059D0002B49096888421ED9284800682044284974
:1059E0000968401AB0F5806F02D90020BDE8F08147
:1059F000224B1B68224F3F68DA1B224B204F3F6827
:105A0000D9192819FAF7E8FC1C4800681C490968EC
:105A1000401A04442AE004F5806019490968401AD4
:105A2000B0F5806F01D90020E0E7154B1B68C3F586
:105A30008062144B124F3F68D9192819FAF7CCFC31
:105A40000F480068C0F5806004440C48006820449A
:105A5000B0F5806F01D90020C8E7281907490A6806
:105A60000849FAF7B9FC054800680444034800688F
:105A7000034908602046B9E700300540DC8DFF1F70
:105A8000E08DFF1FF0E9FF1F10B50321064800F06D
:105A900063F9012802D1044800F0F2F90B21024811
:105AA00000F096F810BD00000010024010B5002272
:105AB0004821044800F0E4F84021024800F088F84A
:105AC00010BD00000010024000B593B0FFF784FE47
:105AD00001A8FDF7A3FA0020ADF806004020ADF8BC
