:020000040000FA
:1000000018BB0020410400007104000073040000CC
:10001000750400007704000079040000000000006F
:1000200000000000000000000000000011030000BC
:100030007D04000000000000C90300002D04000042
:10004000E5460000F54600000547000015470000A2
:100050002547000035470000454700005547000090
:100060006547000075470000854700009547000080
:10007000A5470000B5470000C5470000D547000070
:10008000E5470000F547000005480000154800005E
:10009000254800003548000045480000554800004C
:1000A000654800007548000085480000954800003C
:1000B000A5480000B5480000C5480000D54800002C
:1000C000E5480000F548000005490000154900001A
:1000D0002549000035490000454900005549000008
:1000E00065490000754900008549000095490000F8
:1000F000A5490000B5490000C5490000D5490000E8
:10010000E5490000F5490000054A0000154A0000D5
:10011000254A0000354A0000454A0000554A0000C3
:10012000654A0000754A0000854A0000954A0000B3
:10013000A54A0000B54A0000C54A0000D54A0000A3
:10014000E54A0000F54A0000054B0000154B000091
:10015000254B0000354B0000454B0000554B00007F
:10016000654B0000754B0000854B0000954B00006F
:10017000A54B0000B54B0000C54B0000D54B00005F
:10018000E54B0000F54B0000054C0000154C00004D
:10019000254C0000354C0000454C0000554C00003B
:1001A000654C0000754C0000854C0000954C00002B
:1001B000A54C0000B54C0000C54C0000D54C00001B
:1001C000E54C0000F54C0000054D0000154D000009
:1001D000254D0000354D0000454D0000554D0000F7
:1001E000654D0000754D0000854D0000954D0000E7
:1001F000A54D0000B54D0000C54D0000D54D0000D7
:10020000E54D0000F54D0000054E0000154E0000C4
:10021000254E0000354E0000454E0000554E0000B2
:10022000654E0000754E0000854E0000954E0000A2
:10023000A54E0000B54E0000C54E0000D54E000092
:100240008304000083040000830400008304000092
:100250008304000083040000830400008304000082
:100260008304000083040000830400008304000072
:100270008304000083040000830400008304000062
:10028000DFF820D000F096FFAFF300800CF0BEFF47
:10029000002103480DF00EF80CF0CAFFFEE7000045
:1002A00044EF000018BB002080F309887047EFF38B
:1002B00009807047684680F3098804480078C007C1
:1002C00014BF0220032080F31488704704EF00005D
:1002D000DFF818C0EFF305831B0618BF6047EFF384
:1002E0001483DB0708BF604700DF70470DD40000B0
:1002F000DFF818C0EFF305831B0618BF6047EFF364
:100300001483DB0708BF604700DF7047F1D50000AA
:10031000EFF30980816911F8021CE1BB90E80F102E
:1003200010B5E047BDE81040EFF3098C8CE80700FA
:10033000214B93E80600914208BF704741B91EF077
:10034000100F16D11D49086820F00100086010E068
:100350001EF0100F06BF2CED108A0120002081F83E
:1003600025002CE9F00FC1F828C00CB40DF042FCB8
:100370000CBC1A60D2F828C0BCE8F00F92F8250037
:1003800000280EBF6FF0020E6FF0120EBCEC108A48
:100390008CF30988704710B5094A1268914209D850
:1003A000084C54F8214090E80F10A047EFF3098C57
:1003B0008CE80F0010BD0000B09EFF1F34EF00E07E
:1003C000781900007819000010B50DF0D7FABDE8D3
:1003D0001040154B93E80600914208BF7047EFF3B9
:1003E000098C1EF0100F06BF2CED108A0120002092
:1003F00081F825002CE9F00FC1F828C00CB40DF0ED
:10040000F9FB0CBC1A60D2F828C0BCE8F00F92F8D7
:10041000250000280EBF6FF0020E6FF0120EBCEC2C
:10042000108A8CF309887047B09EFF1F10B50DF03D
:10043000A9FCCCE710B50CF0C5FF0DF0A3FCC6E796
:1004400010484FF0770101600F484FF077010160CD
:100450000E484FF4885101600A484FF07601016060
:1004600009484FF076010160094880470948004774
:10047000FEE7FEE7FEE7FEE7FEE7FEE7FEE7FEE754
:10048000FEE7FEE7040805400C08054000080540AB
:10049000696B0000810200002DE9F05F0546002035
:1004A00092469B4688460646814640241BE02846E5
:1004B00041464746224600F048FC53465A46C01A79
:1004C000914110D311461846224600F02FFC2D1AF8
:1004D00067EB01084F4622460120002100F026FC70
:1004E00017EB00094E41201EA4F10104DFDC484651
:1004F00031462A464346BDE8F09F000038B5D0E9B2
:100500000221491E01EB410102EBC1014268C1EB2E
:10051000011102EB81010268C1EB011102EB8102C2
:10052000D0E9043101EB410103EB81013023A1F556
:10053000527191FBF3F4174D6C4302EBC41291FB23
:10054000F3F403FB141100921A2902DB124B1A4434
:1005500000920C2291FBF2F3104C6343009C04EBDD
:10056000C313009391FBF2F302FB13110C4A08E052
:10057000491E40F2A324535C6343009C04EBC31365
:1005800000930029F4DC0146684600F007FC00985F
:1005900038BD00003F0C0F008051010067C203000E
:1005A00054EF000040EA01039B0703D009E008C9AB
:1005B000121F08C0042AFAD203E011F8013B00F828
:1005C000013B521EF9D27047D2B201E000F8012B74
:1005D000491EFBD270470022F6E710B513460A46C3
:1005E00004461946FFF7F0FF204610BD30B505461A
:1005F0002A460B4612F8010B13F8014B08B1A04232
:10060000F8D01CB1002802D06D1CF1E7284630BD9F
:10061000421C10F8011B0029FBD1801A7047000012
:100620000FB400B58DB010A909900B9000914FF058
:10063000FF300A9000200C9005480690054807906E
:100640006A4609A80F9900F003FC0DB05DF814FB91
:100650006D0E00008B0E00002DE9FF5F1D464FF070
:10066000FF3BD5E9014691465F464FF00008A96976
:100670007F1C01988847296A824688470028F6D15E
:10068000BAF1FF3F0CD024F4C064002E19DD6006DF
:1006900014D5BAF12B0F09D0BAF12D0F0ED103E00A
:1006A000584604B0BDE8F09F44F48064A9697F1CFB
:1006B00001988847761E8246002E02DDBAF1300F7F
:1006C00003D0B9F1000F26D032E0A969761E44F4B8
:1006D00000747F1C019888478246002E05DDBAF120
:1006E000780F06D0BAF1580F03D0B9F1000F10D02F
:1006F0001EE0B9F1000F02D0B9F1100F18D1A969AD
:10070000761E24F400747F1C0198884782461020CE
:1007100002E0082000E00A20814609E008FB090801
:10072000A969761E44F400747F1C019888478246AC
:10073000002E05DD4946504600F076FB0028EDDA34
:10074000E96901988847A00502D46FF00100A8E785
:10075000E00725D1600613D5600502D5C8F1000079
:1007600000E0404629680A1D2A600968220501D573
:10077000087015E0220701D5088011E008600FE03D
:100780002868011D29600068210502D580F80080D5
:1007900006E0210702D5A0F8008001E0C0F8008043
:1007A00038467EE72DE9FF5FD2E901A74FF0000848
:1007B000916999461446DDF838B046460198884755
:1007C000054659EA0B0005D009E0A169761C01989D
:1007D00088470546216A284688470028F5D1681CC5
:1007E00003D05FEACA7005D015E04FF0FF3004B0C7
:1007F000BDE8F09F2068011D2160D0F800800AE06C
:100800005FEACA7001D108F8015BA169761C7F1EFE
:10081000019888470546002F1ADD681C18D0B9F1E9
:10082000000F0DD0E81705EBD060421120F01F003B
:1008300059F822102A1A012090400142E0D107E025
:10084000BBF1000FDCD1216A284688470028D7D0A9
:10085000E16901988847BBF1000F07D1002E05DD43
:100860005FEACA7002D1002188F80010A068B8427F
:1008700003DDBBF1000F03D017B16FF00100B6E745
:100880003046B4E770B5064607F074FE04680546C6
:100890000A220021304600F057FB2C6070BD2DE984
:1008A000FE4F804681EA0300C00F0C46009021F005
:1008B000004123F00045B8EB0200A94105D24046B3
:1008C000214690461C460B46024623F0004010434A
:1008D00047D0270DC7F30A00C3F30A510290401A0C
:1008E000019040286BDAC3F3130040F4801B00989A
:1008F000924620B10023D2EB030A63EB0B0B019865
:100900005946C0F14002504600F010FA06460D4626
:1009100050465946019A00F028FA10EB0800614150
:10092000002487EA115284EAE7731A4340D0009A00
:1009300062B3019A012A4FEA075215DC001B61EBF2
:1009400002014FF0004202EA0752CDE90042001CCA
:1009500041F5801132462B4600F074FB03B0BDE830
:10096000F08F40462146F9E7001B61EB0201001CB5
:1009700041F5801300185B412018A2F5001747EBE2
:10098000030140EAD570B6196D4111E06D084FEAD8
:10099000360645EAC0754FEA0752001B61EB0201BB
:1009A000001C41F5801149084FEA300000195141FF
:1009B00032462B4603B0BDE8F04F00F034BB009840
:1009C000012240000023D0EB020263EBE0730098A9
:1009D00021464FEAE074B8EB000061EB0401E9E75F
:1009E00083F000435BE781F0004158E72DE9FE4FBB
:1009F00081EA030404F0004421F0004100944FF028
:100A0000000B23F0004350EA01045ED052EA0304D5
:100A10005BD0C3F30A54C1F30A552C44A4F2F33457
:100A20000194A0FB0254C1F3130141F48011C3F3FC
:100A3000130343F4801301FB024400FB034E840ABA
:100A4000970A44EA815447EA8357A4FB0768029552
:100A50008D0A05FB07854FEA932C04FB0C542705F0
:100A6000029D4FEA065847EA1637B5EB08056EEBCC
:100A7000070C870E920E47EA811742EA8312A7FB02
:100A80000201B6EB0B0164EB00042B0D43EA0C33BF
:100A90005E1844EB1C50DA465146E7FB0201C5F3F1
:100AA00013044FEA0B3343EA14534FEA0432019C18
:100AB00043EA0603A4F10C040294009CCDE900B4BF
:100AC00000F0C0FA03B0BDE8F08F00200146F9E75E
:100AD0002DE9F04D81EA030404F0004B21F00045BC
:100AE00014464FF0000A23F0004150EA050220D0DE
:100AF00054EA01021DD0C5F30A570246C5F3130399
:100B0000C1F31300C1F30A5640F4801543F4801377
:100B1000A7EB0608101BD64608F2FD3873EB05005C
:100B200002D308F1010801E092185B41B8F1000F0F
:100B300003DA00200146BDE8F08D00204FF480115B
:100B4000064684460EE0171B73EB050705D3121B00
:100B500063EB050306434CEA010C49084FEA3000F9
:100B600092185B4150EA0107EDD152EA030012D01E
:100B700082EA040083EA0501084305D0101BAB415B
:100B800006D20122002306E000224FF0004302E0DB
:100B90006FF0010253101AEB06004CEB085110EBFA
:100BA0000A0041EB0B01BDE8F04D00F03CBA0EB578
:100BB000C10F80EAE0700844CA07002140F23343C5
:100BC0008DE80E000A460B4600F03CFA03B000BD6B
:100BD0000EB540F2334102910021CDE900110A46E1
:100BE0000B4600F02FFA03B000BD0EB540F23342C1
:100BF00002920022CDE90022134600F023FA03B04E
:100C000000BD70B5C1F30A5201F000450024C1F3E4
:100C1000130140F2FF3341F480119A4201DA0020BF
:100C200070BD40F233439A42A2F2334203DC524297
:100C300000F08BF800E090402C43F1D0404270BDB2
:100C400000F0004230F000400AD0C10D01F56071A3
:100C5000C0F3160042EA0151C20840071143704731
:100C6000002001467047000030B5041E71F10004F9
:100C700004DB4FF00044404264EB0101141E73F1A9
:100C8000000405DB1C464FF00043524263EB0403B3
:100C90008B4208BF824230BD30B5041E71F10004A2
:100CA00004DB4FF00044404264EB0101141E73F179
:100CB000000405DB1C464FF00043524263EB040383
:100CC000994208BF904230BD01F0004330B421F09A
:100CD000004150EA010206D00A0DA2F56072C1F38C
:100CE0001301002A02DC30BC00207047440F44EAA4
:100CF000C104C100E01830BC00EBC25000F05CB988
:100D000030B50B46014600202022012409E021FADB
:100D100002F59D4205D303FA02F5491B04FA02F5D8
:100D20002844151EA2F10102F1DC30BD202A04DBAB
:100D3000203A00FA02F1002070479140C2F12003EE
:100D400020FA03F3194390407047202A04DB203A2D
:100D500021FA02F00021704721FA02F3D040C2F1DB
:100D600020029140084319467047202A06DBCB1722
:100D7000203A41FA02F043EAE07306E041FA02F356
:100D8000D040C2F12002914008431946704700004C
:100D9000014900F003B80000ECAA002010B500687B
:100DA0003C22B0FBF2F302FB1303B0FBF2F00B604A
:100DB000B0FBF2F302FB1303B0FBF2F018224B601E
:100DC000B0FBF2F302FB1303B0FBF2F0021D8B60E9
:100DD0000723B2FBF3F403FB1422800040F2B55367
:100DE00000F66C308A61B0FBF3F2B0FBF3F403FB66
:100DF0001400443280084A61C8613B2802D392073C
:100E000000D0401C0022074C13460A61E25C82427B
:100E100003D8801A5B1C0B61F8E7401CC8600846C9
:100E200010BD000080F000003A2800D2303820F0D9
:100E30002002412A01D3A2F13700884201D34FF0AA
:100E4000FF307047026811441378016018467047FC
:100E5000D1600449516104491162002111611146B8
:100E600000F0C8B9450E0000E1110000426842B12F
:100E7000016811F8013B23B1521EC0E90012184667
:100E800070470121C160881E704742685AB1C3682B
:100E9000016843B983688B4205D0491E521CC0E9E2
:100EA0000012002070474FF0FF3070470FB400234E
:100EB00000B589B00CA900910B996FF00042CB608E
:100EC0001E4B06931E4B07930423CDE901321D4AA6
:100ED000089202466B46002000F0B8FB09B05DF8AE
:100EE00014FB70B586B006464FF0FF300091CDE997
:100EF0000101002015460C4604903246694604A8BC
:100F0000FFF7D4FF02460498211825B108B108461E
:100F100000E020462860049800280DD0002A02DD59
:100F20000098884208D0081B0094CDE9010432469D
:100F3000694604A8FFF7BAFF06B070BD6D0E000049
:100F40008B0E0000E11100002DE9F04791460F469D
:100F500080460446002614F8015B2DB100F03CF9F0
:100F60000068405DC007F6D12B2D02D02D2D18D082
:100F7000641E4A463946204600F084FC27B1396891
:100F8000A14201D1C7F8008071054FF002040BD5D2
:100F90004042002803DD07F0EDFA0460A007BDE839
:100FA000F08746F48066E4E70028F8DA07F0E2FA12
:100FB00004606FF00040F2E70029A8BF7047401CB2
:100FC000490008BF20F00100704710B4B0FA80FC5F
:100FD00000FA0CF050EA010404BF10BC704749B19C
:100FE000CCF1200421FA04F411FA0CF118BF01210C
:100FF00021430843A3EB0C01CB1D4FEA00614FEAEC
:10100000102042BF002010BC704700EBC3501044BA
:101010000029A4BF10BC7047401C490008BF20F045
:10102000010010BC704710B5141E73F1000408DAFB
:10103000401C41F1000192185B411A4301D120F09C
:10104000010010BD2DE9F04D92469B4611B1B1FA59
:1010500081F202E0B0FA80F220329046FFF766FE9D
:1010600004460F4640EA0A0041EA0B0153465A463D
:10107000084313D0114653EA010019D0C8F14002C9
:101080005046FFF762FE05460E4650465946424618
:10109000FFF74CFE084305D0012004E02046394606
:1010A000BDE8F08D0020054346EAE0762C43374347
:1010B0000A986305E40AA0EB08000022FD0A44EA4E
:1010C00047540A3002D500200146E9E7010510190E
:1010D0006941DDE9084500196941BDE8F04DA2E725
:1010E0002DE9F04D00231A461B1A8A4103DB00202C
:1010F0000146BDE8F08DC1F30A52C1F3130141F47A
:1011000080154FF0000BD10702D100186D41521E1F
:101110000027044640F2FF11384601EB620A3E46C2
:101120008046024600204FF48011FFF70EFEC219E0
:101130007141BB1846EB0100B4EB030C75EB000CDE
:1011400004D3E41A65EB000517460E46241908F18E
:1011500001006D4180463428E3DDF91946EB0600B5
:10116000091BA84103D24FF0FF32134601E00022D1
:1011700013461BEB070046EB0A51BDE8F04DFFF7A5
:1011800052BFC1F30A52C1F3130140F2FF3341F4DD
:1011900080119A4202DA00200146704740F2334340
:1011A0009A42A2F2334202DC5242FFF7CEBDFFF771
:1011B000BDBD0000064C074D06E0E06840F00103AD
:1011C00094E8070098471034AC42F6D3FFF75CF878
:1011D0006CF100008CF100000048704710F1000035
:1011E00010B50446FFF7F8FF0068005D00F001004D
:1011F00010BD00002DE9F34F8BB04FF0000801F156
:101200000C000C464FF0010B46460DF1080A019008
:101210006269012101989047051E2DD0252D2CD003
:10122000216A8847C0B16269012101989047216A0B
:1012300088470028F7D1411E62690198904700E075
:10124000761CA1690B988847216A88470028F7D146
:10125000E1690B988847DBE7A1690B988847074647
:10126000A84201D1761CD3E7E1690B9888477F1C1F
:1012700002D1B8F1000F6FD047E1002762693D4607
:101280003946019890472A2804D1626901210198C2
:1012900090470125DFF88892626901210198904703
:1012A000A0F130010A290AD24F45E5DC07EB87019E
:1012B00000EB4107303FDFD445F01005ECE7E906CD
:1012C00001D46FF000476C280AD04C2814D068284D
:1012D00015D06A280DD074281CD07A281AD01DE0A9
:1012E00062690121019890476C2802D045F00405FD
:1012F00014E045F002050DE045F020050AE06269C2
:10130000012101989047682802D045F0080505E0C2
:1013100045F400656269012101989047C4E90157CD
:1013200065283DD019DC58287AD00CDC452837D008
:1013300004DC252826D0412831D131E046282FD0A1
:1013400047282CD12CE05B2877D0612828D063284F
:101350007CD0642823D15AE0D1E06F2848D008DC43
:1013600066281DD067281BD0692821D06E2816D189
:1013700027E0702845D0732868D0752847D0782892
:101380000DD14DE0A1690B988847054625283FF40B
:1013900069AFE1690B9888476D1C3FF46AAFB4E010
:1013A00023466A466FF001000B9900F04FF99FE069
:1013B00045F040006060A80723464FF0000236D495
:1013C0003EE0E8077FF447AF2068011D2160006818
:1013D000290501D506701BE7290701D5068017E707
:1013E000A90703D5F117C0E9006111E706600FE70F
:1013F00045F040006060A80723464FF0080216D46D
:101400001EE040F60E0125EA0100606016E045F09E
:1014100040006060A80723464FF00A0207D40FE09F
:1014200045F040006060A80708D5234610226FF001
:1014300001000B99AFF300805AE007E02346102229
:101440006FF001000B99FFF707F951E04FF0000929
:101450004F464B46632802D05B2807D041E02079F5
:10146000C00601D40120A06001273AE06269012191
:10147000019890475E2805D14FF0010962694946FD
:1014800001989047216939B900210A46534643F82B
:101490002120491C0829FADBB0B3216969B9C117B9
:1014A00000EBD16253110AEB830122F01F02821A72
:1014B00001200B68904003430B6062690121019891
:1014C00090475D28E8D1B9F1000F09D000205146BE
:1014D00051F82020D24341F82020401C0828F7DB97
:1014E00002AB224600976FF001000B99FFF75AF903
:1014F00000280CDA401C08D1BBF1000F05D04FF0DA
:10150000FF300DB0BDE8F08FFFE74046F9E7E9078F
:1015100001D108F1010806444FF0000B78E6000005
:10152000CCCCCC0C2DE9FF4F087883B09946FF282E
:1015300005D0491C2D2804D00024002008E00020FC
:101540000BE00124F9E700EB800003EB4000491CAD
:101550000B78FF2BF7D104B140420023029314789B
:1015600019461D462D2C01D02B2C04D1521C2D2C9C
:1015700013D000240294AA461478FF2C0FD00A2519
:10158000A3FB057801FB05814FF0000C03FB0C1158
:10159000521CE3194AEB0101EEE70124EAE781441A
:1015A00053EA010002D019F5C87F06DA039800213A
:1015B000C0E9001107B0BDE8F08F0025AE4E2F4600
:1015C000DFF8B8821846FFF710FBCDE90001B9F14A
:1015D000000002DAC9F1000400E004460023A74A33
:1015E0001AEB030B42EB045A12E0E00707D02A463D
:1015F000334638464146FFF7F9F9074688462A46FA
:10160000334610461946FFF7F1F905460E466410B9
:10161000002CEAD1DDE90001B9F1000F5A4653462A
:1016200006DAFFF755FA3A464346FFF751FA05E066
:10163000FFF7DCF93A464346FFF7D8F9029A0AB1B8
:1016400081F00041039AC2E90001B3E72DE9FF4FA1
:101650001F468DB0D7E901464FF0FF382E20454692
:101660004FF000090B90B9696D1C0E988847396AD4
:10167000824688470028F6D1BAF1FF3F0AD024F409
:10168000D064002E11DDBAF12B0F08D0BAF12D0F66
:101690000BD102E0404611B08DE744F48064B96993
:1016A0006D1C0E9888478246761E6946600501D5F6
:1016B0002D2000E02B208DF8000001F1010B0DF131
:1016C000200809E0B9696D1C0E98884782460F987A
:1016D00044F40074761E0560002E02DDBAF1300F6E
:1016E000F0D00B998A453ED144F0800406E00F9972
:1016F000681CA9F1010944F400740860B9696D1C03
:10170000761E0E98884782463028F0D02BE00B9941
:101710008A4505D1200603D444F08004761E18E0E3
:10172000504607F074FF08B30DF11301761E44F420
:1017300000748B4508D2AAF130000BF8010B20068B
:1017400007D5A9F1010003E0200602D409F1010048
:101750008146A00502D50F99681C0860B9696D1C07
:101760000E9888478246002ED1DC53E0002E51DDD2
:10177000BAF1650F02D0BAF1450F4BD1A00549D59A
:10178000B9696D1C24F44074761E0E988847824611
:10179000002E0CDD2B2804D0BAF12D0F07D144F414
:1017A0008074B9696D1C0E9888478246761EE005E4
:1017B00001D52D2100E02B2108F8011BCDF82C804C
:1017C00021E00DF12901761E44F4007488450CD205
:1017D000AAF1300010F0FF0088F8000002D10B9948
:1017E000884509D908F1010806E0E00501D524483B
:1017F00001E042F20F708146B9696D1C0E9888476E
:1018000082460F980560002E04DD504607F0FFFE6B
:101810000028D6D1F9690E988847FF208BF8000080
:1018200088F800000020069007904B466A4608A9F9
:1018300006A8FFF777FEA00502D46FF001002AE7A3
:1018400014F0240F0AD0E00714D1DDE9061238683D
:10185000031D3B600068C0E900120BE0DDE90601F2
:10186000FFF732FA0146E00704D13868021D3A60FA
:101870000068016028460EE7000014400000F03FB9
:10188000F1D8FFFF2DE9F05F82460078002715466A
:101890008B460AF10104B946302801D09DB113E00E
:1018A00014F8010B0127782803D0582801D045B13E
:1018B0000AE00DB1102D07D10027102514F8010BF7
:1018C00002E0082500E00A250026B0460EE005FBF0
:1018D000080005FB06F1012701EB10461FFA80F80E
:1018E000B6F5803F00D3B94614F8010B2946FFF73F
:1018F0009BFA0028EBDABBF1000F05D00FB1641E94
:1019000000E05446CBF80040B9F1000F06D006F0D5
:1019100031FE02210160C81EBDE8F09F48EA064082
:10192000FAE770B58C1810F8015B15F0070301D1C8
:1019300010F8013B2A1106D110F8012B03E010F832
:10194000016B01F8016B5B1EF9D12B0705D4002355
:10195000521E0DD401F8013BFAE710F8013BCB1AF7
:10196000921C03E013F8015B01F8015B521EF9D5EC
:10197000A142D8D3002070BD0000000010B505F0D2
:101980008DF80BF071FA002010BD000070B5044610
:101990000D4600BF2D4884424DD0001D84424AD0E0
:1019A000001D844247D0001D844244D0001D844263
:1019B00041D0001D84423ED0001D84423BD0001D1A
:1019C000844238D0001D844235D0001D844232D07C
:1019D000001D84422FD0001D84422CD0001D844263
:1019E00029D0001D844226D0001D844223D0001D32
:1019F000844220D0001D84421DD0001D84421AD094
:101A0000001D844217D0001D844214D0001D844262
:101A100011D0001D84420ED0001D84420BD0001D49
:101A2000844208D0001D844205D0001D844202D0AB
:101A3000001D844200D103E09C2105A000F09EFD22
:101A400000BF206865F30800206070BD04080140F5
:101A50002E2E5C647269766572735C686333325FE4
:101A60006C6C5F6472697665725C7372635C6863E8
:101A700033325F6C6C5F616F732E63001FB502A819
:101A800000F0ECFB684600F091FA2B492B4800F07F
:101A9000B6FA00208DF80A0030208DF809000020E9
:101AA0008DF8080005208DF80C0002A800F034FB2A
:101AB00000200190019820F01F0001903121019831
:101AC00061F310200190019820F0704000F18050E7
:101AD0000190019820F0706000F1807001900198F1
:101AE00020F4700000F58010019000208DF80000B7
:101AF000019820F080000190684600F005F900BFD1
:101B0000202000F06DF80128FAD1002211460420AF
:101B100004F0DEFA012211460B2004F0D9FA50201D
:101B200001F000FB4FF4404001F0EEFE03F08EFAAE
:101B3000052000F06EFA1FBD10221100777777079D
:101B400010B50848006840F400600649086000BF0E
:101B50000221012001F046FD0028F9D0022001F009
:101B60003DFB10BD1C80FF1F00B585B0684601F02D
:101B700013FF0020ADF800000220ADF802006A4615
:101B80004102002001F030FC05B000BD00B585B079
:101B9000684601F001FF4FF48050ADF80E00402080
:101BA000ADF80A006A460221012001F01DFC05B0D3
:101BB00000BD08B50021009102E00099491C009188
:101BC00000998142F9D308BD70B5044600250CB9CF
:101BD000ED1E02E0204601F0FDFE284670BD00002B
:101BE00010B5044600BF24B144F06900692800D153
:101BF00004E040F2BB5106A000F0C0FC00BF0F485B
:101C00000078204008B1012010BD0020FCE7000052
:101C10002E2E5C647269766572735C686333325F22
:101C20006C6C5F6472697665725C7372635C686326
:101C300033325F6C6C5F636C6B2E63003C4005401D
:101C400070B50446002500BF0CB1012C00D104E0A2
:101C500040F20E511FA000F091FC00BF00BF2848C9
:101C6000008800F0010000B104E040F20F5119A01B
:101C700000F084FC00BF64B92248007800F007003F
:101C8000052801D1C54322E001201E49091D087025
:101C90001DE01C48DA300068C0F3C01030B94FF4C2
:101CA0008051082000F0BDF9054605E04FF4805151
:101CB000012000F0B6F905464DB900201149091D73
:101CC00008704FF48051202000F0ABF905462846FB
:101CD00070BD00002E2E5C647269766572735C685C
:101CE0006333325F6C6C5F6472697665725C7372C9
:101CF000635C686333325F6C6C5F636C6B2E630094
:101D0000FE430540264005402DE9F041044614B944
:101D10006FF002061FE100BF2079C0F3C01018B1B8
:101D20002079C0F3C01000B104E040F2DF418BA085
:101D300000F024FC00BF00BF207900F01F00401C11
:101D4000182805D8207900F01F00401C00B104E0DD
:101D50004FF49C6181A000F011FC00BF00BF6068DF
:101D6000C0F30820401CB0F5F07F06D86068C0F3CF
:101D70000820401C142800D304E040F2E14177A081
:101D800000F0FCFB00BF00BF0121606801EB107098
:101D9000102805D8606801EB1070022800D304E019
:101DA00040F2E2416DA000F0E9FB00BF2079C0F3F2
:101DB000C01008B9744901E074480168207900F046
:101DC0001F00401CB1FBF0F76068C0F30820401C06
:101DD00000FB07F500BF6E48874203D86D48874275
:101DE00000D304E04FF49D615CA000F0C7FB00BF8E
:101DF00000BF6948854203D84010854200D304E003
:101E000040F2E94155A000F0B9FB00BF00BF01213D
:101E1000606801EB1070B5FBF0F06049884209D8AA
:101E20000121606801EB1070B5FBF0F05C4988425D
:101E300000D304E040F2EA4148A000F09FFB00BF5D
:101E400000BF6068C0F30360401C102806D86068BB
:101E5000C0F30360401C022800D304E040F2EB41D1
:101E60003EA000F08BFB00BF00BF6068C0F30350D2
:101E7000401C102806D86068C0F30350401C02289C
:101E800000D304E040F2EC4134A000F077FB00BF47
:101E900000BF6068C0F30350401CB5FBF0F03F4941
:101EA000884209D86068C0F30350401CB5FBF0F0CD
:101EB0000911884200D304E040F2ED4127A000F070
:101EC0005DFB00BF00BF6068C0F30360401CB5FB52
:101ED000F0F03249884209D86068C0F30360401CC2
:101EE000B5FBF0F00911884200D304E040F2EE4166
:101EF0001AA000F043FB00BF00BF2078012801D0EA
:101F0000207800B904E040F2EF4114A000F036FB65
:101F100000BF00BF2348008800F0010000B104E0CA
:101F20004FF49E610DA000F029FB00BF2079C1098C
:101F30001D48006861F3C7101B49086060680860AD
:101F4000207820B90120FFF77BFE064603E0002041
:101F5000FFF776FE06463046BDE8F0812E2E5C6423
:101F60007269766572735C686333325F6C6C5F6450
:101F700072697665725C7372635C686333325F6C3E
:101F80006C5F636C6B2E630000127A000480FF1F8D
:101F900040787D0140420F0000389C1C001C4E0E12
:101FA000C0E1E400FE430540004105400146002039
:101FB00009B9C01E22E000224A604A6822F080026D
:101FC0004A604A6822F01F024A6013234A6863F39A
:101FD00010224A604A6822F0704202F180524A6040
:101FE0004A6822F0706202F180724A604A6822F404
:101FF000700202F580124A6001220A70704770B5C3
:1020000004460D462946204604F0D8F804F046FD63
:1020100070BD10B50446204604F08CFA04F03EFD75
:1020200010BDF8B505460C46002000906FF007067D
:1020300009E02846FFF7D4FD012801D1002605E07C
:102040000098401C00900098A042F2D900BF304692
:10205000F8BD000070B50446002500BF0CB1012C8E
:1020600000D104E040F2CB311EA000F087FA00BF9F
:1020700000BF2748008800F0010000B104E04FF4E1
:10208000737118A000F07AFA00BFFCB921480078FB
:1020900000F00700032802D16FF0050520E01D487D
:1020A000DA300068C0F3C01058B91A48001D007833
:1020B00010B96FF0050513E0012016490C310870C6
:1020C0000EE0012013490C31087009E0002011498D
:1020D0000C3108704FF480510820FFF7A2FF05462D
:1020E000284670BD2E2E5C647269766572735C68DA
:1020F0006333325F6C6C5F6472697665725C7372B5
:10210000635C686333325F6C6C5F636C6B2E63007F
:10211000FE4305402640054070B5044614B96FF0F3
:1021200002057FE000BF2078012801D0207800B9A7
:1021300004E040F2A9313CA000F020FA00BF00BF4B
:10214000607840B16078102805D06078202802D0EF
:102150006078302800D104E040F2AA3132A000F0CB
:102160000DFA00BF00BFA07810B1A078402800D1C0
:1021700004E040F2AB312CA000F000FA00BF00BF39
:10218000E078802801D0E07800B904E04FF46B716A
:1021900025A000F0F3F900BF00BF2079012817D077
:1021A0002079022814D02079032811D0207904281E
:1021B0000ED0207905280BD02079062808D0207968
:1021C000072805D02079082802D02079092800D1D5
:1021D00004E040F2AD3114A000F0D0F900BF00BF20
:1021E0001C48008800F0010000B104E040F2AE316C
:1021F0000DA000F0C3F900BF207917490870E078FE
:1022000061780843A1780843124912310870207898
:1022100020B90120FFF71EFF054603E00020FFF76D
:1022200019FF0546284670BD2E2E5C6472697665DE
:1022300072735C686333325F6C6C5F64726976657D
:10224000725C7372635C686333325F6C6C5F636C87
:102250006B2E6300FE430540A2400540014600206E
:1022600009B9C01E08E001220A7000228A704A7073
:102270008022CA7005220A71704700002DE9FC47D0
:1022800004460F4690469946DDE90AA54FF0FF3611
:102290001048844208D01048844205D00F48844238
:1022A00002D00F48844208D14B4642463946204668
:1022B000CDE900A500F016F806463EB14B46424671
:1022C00039462046009500F0C7F806463046BDE87E
:1022D000FC87000000D0014000D401400010024003
:1022E000001402402DE9FF4F2DED088B85B082468A
:1022F0006FF00200019000BF4748824508D0474870
:10230000824505D04648824502D04648824500D1E4
:1023100004E04FF4167144A000F030F900BF0E9CA9
:10232000DDF83C90109800286ED01A9800286BD0E9
:10233000002C69D0B9F1000F66D04FEA8900B4FBD8
:10234000F0F0451E002D5FD0FF2D5DD80020691CE8
:1023500040EB000C0423A1FB032B0CFB03B301FB9C
:102360000031A2FB097301FB093102FB00184FF495
:1023700080700021A7FB00B308FB003007FB010CB5
:1023800022460B4658466146FEF786F88021461ADB
:102390007F2E39D8109805601A9806601B9888B36C
:1023A00049004FF0000C3A46A2FB010B08FB01B1BB
:1023B00007FB0C18074600208022B21840EB0003F0
:1023C0000021A2FB040C03FB04C302FB0131CDE995
:1023D000020138464146FEF708FC41EC1A0BDDE9E4
:1023E0000201FEF702FC53EC1A2BFEF771FBFEF71D
:1023F0006BFC00EE100AF7EE000A30EE608A1B98C4
:1024000080ED008A00200190019805B0BDEC088B9A
:1024100004B0BDE8F08F000000D0014000D40140BE
:1024200000100240001402402E2E5C647269766532
:1024300072735C686333325F6C6C5F64726976657B
:10244000725C7372635C686333325F6C6C5F75736C
:102450006172742E630000002DE9FF4F2DED088B93
:1024600081B006468B469A466FF00200009000BF8E
:102470003248864208D03248864205D031488642EA
:1024800002D03148864200D104E040F295112FA0DD
:1024900000F074F800BF5F460B9DBAF1000F45D005
:1024A000F7B3EDB307EB87004000A900B0FBF1F0F4
:1024B000401D0A21B0FBF1F0441E8CB3FF2C35D82F
:1024C000CAF80040169860B30020611C40EB00027F
:1024D0004FF0040C0023A1FB0C0E02FB0CE201FBED
:1024E000032300210246A2FB058C03FB05C300FB6E
:1024F000013940464946FEF778FB41EC1A0B384655
:10250000FEF766FB53EC1A2BFEF7E2FAFEF7DCFB54
:1025100000EE100AF7EE000A30EE608A169801E02D
:1025200004E001E080ED008A00200090009801B0F6
:10253000BDEC088B04B0BDE8F08F000000D0014076
:1025400000D4014000100240001402402E2E5C64B2
:102550007269766572735C686333325F6C6C5F645A
:1025600072697665725C7372635C686333325F6C48
:102570006C5F75736172742E6300000000BFFEE72C
:1025800008B50D49096AC1F302630C490968D940CD
:1025900042F210731944491EB1FBF3F206E00092B7
:1025A00000BF00994B1E00930029FAD1011EA0F133
:1025B0000100F4D108BD0000004005400080FF1F6D
:1025C00008B50C49096AC1F302630B490968D9408F
:1025D0000A4B1944491EB1FBF3F206E0009200BF1A
:1025E00000994B1E00930029FAD1011EA0F10100B1
:1025F000F4D108BD004005400080FF1F8096980080
:102600002DE9F04704460D469146002700BF6E486D
:10261000844202D06D48844200D104E04FF4AD7191
:102620006BA0FFF7ABFF00BF00BF032D00D804E095
:1026300040F25B1166A0FFF7A1FF00BF00BFB9F138
:10264000000F02D0B9F1010F00D104E04FF4AE71D8
:102650005FA0FFF793FF00BF6848007800287DD196
:10266000012066490870E0690121A94020EA010AB9
:10267000BAF1000F73D0E06900F00100D8B1D5B114
:10268000A06C4FEA1048A06E060C0A2E13D84645DF
:1026900011D20BE0781C87B2B7F5A04F06D9002005
:1026A000564908706FF00700BDE8F087E06900F058
:1026B00001000028EED1E06900F0020002281ED1DE
:1026C000012D1CD0D4F888004FEA1048D4F8A80097
:1026D000060C0A2E13D8464511D200270AE0781CB2
:1026E00087B2B7F5A04F05D90020444908706FF0B4
:1026F0000700D9E7E06900F002000028EFD1E069A7
:1027000000F0040004281ED1022D1CD00027D4F8AC
:10271000C8004FEA1048D4F8E800060C0A2E12D878
:10272000464510D20AE0781C87B2B7F5A04F05D90C
:102730000020324908706FF00700B5E7E06900F04B
:1027400004000028EFD1E06900F00800082821D13A
:10275000032D1FD00027D4F8080101E030E019E074
:102760004FEA1048D4F82801060C0A2E12D8464524
:1027700010D20AE0781C87B2B7F5A04F05D9002027
:102780001E4908706FF007008EE7E06900F008004E
:102790000028EFD1B9F1010F07D1E1690120A8406C
:1027A00000F00F000143E16106E0E0690121A9406A
:1027B0000F228A431040E06100201049087073E73F
:1027C0004FF0FF3070E70000003005400034054056
:1027D0002E2E5C647269766572735C686333325F57
:1027E0006C6C5F6472697665725C7372635C68635B
:1027F00033325F6C6C5F646D612E63001980FF1F64
:1028000070B504460D4600BF0F48844202D00F4801
:10281000844200D104E040F243110DA0FFF7AEFE68
:1028200000BF00BF2DB145F00F10B0F10F1F00D158
:1028300004E04FF4A27106A0FFF7A0FE00BFA0695C
:102840002843A06170BD0000003005400034054001
:102850002E2E5C647269766572735C686333325FD6
:102860006C6C5F6472697665725C7372635C6863DA
:1028700033325F6C6C5F646D612E630070B504462B
:102880000D4600BF0B48844202D00B48844200D161
:1028900003E0DA2109A0FFF771FE00BF00BF0DB110
:1028A000012D00D103E0DB2104A0FFF767FE00BF8C
:1028B000256070BD00300540003405402E2E5C645C
:1028C0007269766572735C686333325F6C6C5F64E7
:1028D00072697665725C7372635C686333325F6CD5
:1028E0006C5F646D612E630070B504460D4600BFD9
:1028F0001048844202D01048844200D104E040F2E3
:10290000E3410EA0FFF73AFE00BF00BF032D00D841
:1029100004E040F2E44109A0FFF730FE00BF04F1FB
:10292000680000EB851000684FF6FF7101EA104067
:1029300070BD000000300540003405402E2E5C6460
:102940007269766572735C686333325F6C6C5F6466
:1029500072697665725C7372635C686333325F6C54
:102960006C5F646D612E63002DE9F04106460D46F3
:1029700014464FF0000800BF4948864202D049483B
:10298000864200D104E040F2613147A0FFF7F6FD36
:1029900000BF00BF032D00D804E040F2623142A026
:1029A000FFF7ECFD00BF14B96FF0020874E000BF40
:1029B000E06838B1E068B0F5807F03D0E068B0F53A
:1029C000007F00D104E040F2673137A0FFF7D6FD69
:1029D00000BF00BFA06928B1A069012802D0A0698A
:1029E000022800D104E04FF45A712FA0FFF7C6FD72
:1029F00000BF00BFE06928B1E069042802D0E069A7
:102A0000082800D104E040F2693127A0FFF7B6FDA5
:102A100000BF00BF2069B0F5806F00D204E040F233
:102A20006A3121A0FFF7AAFD00BF00BF2068B0F502
:102A3000805F01D0206800B904E040F26B311AA039
:102A4000FFF79CFD00BF06F1400000EB85106168B8
:102A5000016006F1440000EB8510A1680160A18AC5
:102A6000206940EA014106F1480000EB8510016051
:102A700006F15C0000EB8517E16820680843A16956
:102A80000843E169084341F20F310840396841F2D7
:102A90000F329143084338604046BDE8F0810000A2
:102AA00000300540003405402E2E5C647269766566
:102AB00072735C686333325F6C6C5F6472697665F5
:102AC000725C7372635C686333325F6C6C5F646DFD
:102AD000612E63002DE9F04106460D4614464FF085
:102AE000000800BF2748864202D02748864200D10E
:102AF00004E040F2214125A0FFF740FD00BF00BFE8
:102B0000032D00D804E040F2224120A0FFF736FD5B
:102B100000BF14B96FF0020831E000BF2068B0F5C3
:102B2000806F01D0206800B904E040F2274117A06F
:102B3000FFF724FD00BF00BF6068B0F5006F01D053
:102B4000606800B904E04FF4856110A0FFF716FD3E
:102B500000BF06F15C0000EB85172088A1880843C0
:102B600000F44060396821F4406108433860A0688F
:102B700020F0030106F1580000EB8510016040468B
:102B8000BDE8F08100300540003405402E2E5C6425
:102B90007269766572735C686333325F6C6C5F6414
:102BA00072697665725C7372635C686333325F6C02
:102BB0006C5F646D612E63000146002009B9C01E80
:102BC00003E000220A604A608A60704770B50446DC
:102BD0000D4600BF1148844202D01148844200D102
:102BE00004E040F266410FA0FFF7C8FC00BF00BF41
:102BF0000DB1012D00D104E040F2674109A0FFF7BB
:102C0000BDFC00BF012D04D1E06A40F00100E0628C
:102C100003E0E06A20F00100E06270BD0030054092
:102C2000003405402E2E5C647269766572735C68B0
:102C30006333325F6C6C5F6472697665725C737269
:102C4000635C686333325F6C6C5F646D612E63003C
:102C500070B504460E46154600BF1748844202D0A0
:102C60001648844200D104E040F27A4114A0FFF7F4
:102C700085FC00BF00BF032E00D804E040F27B417A
:102C80000FA0FFF77BFC00BF00BF0DB1012D00D1ED
:102C900004E040F27C410AA0FFF770FC00BF300264
:102CA00040EA450040F602710840E16A40F60272CF
:102CB00091430843E06270BD003005400034054098
:102CC0002E2E5C647269766572735C686333325F62
:102CD0006C6C5F6472697665725C7372635C686366
:102CE00033325F6C6C5F646D612E63002DE9F041DF
:102CF00006460F4615464FF0000800BF20488642A2
:102D000002D02048864200D104E040F23B211EA0C0
:102D1000FFF734FC00BF00BF032F00D804E04FF4DE
:102D20000F7119A0FFF72AFC00BF00BFB5F5806F37
:102D300000D204E040F23D2113A0FFF71FFC00BFCA
:102D400006F1480000EB8714206865F30900206055
:102D50000EE008F101001FFA80F8B8F5805F03D992
:102D60006FF00700BDE8F081206865F3090020607E
:102D70002068C0F30900A842EBD10020F2E7000070
:102D800000300540003405402E2E5C647269766583
:102D900072735C686333325F6C6C5F647269766512
:102DA000725C7372635C686333325F6C6C5F646D1A
:102DB000612E63002DE9F04105460C4616460027BA
:102DC00000BF1A48854202D01948854200D104E06C
:102DD00040F2012117A0FFF7D1FB00BF00BF032C79
:102DE00000D804E040F2022112A0FFF7C7FB00BFA9
:102DF00005F1440000EB841006600DE0781C87B2FA
:102E0000B7F5805F03D96FF00700BDE8F08105F1E9
:102E1000440000EB8410066005F1440000EB8410D0
:102E20000068B042EAD10020EFE700000030054022
:102E3000003405402E2E5C647269766572735C689E
:102E40006333325F6C6C5F6472697665725C737257
:102E5000635C686333325F6C6C5F646D612E63002A
:102E60002DE9F04105460C461646002700BF1A48DA
:102E7000854202D01948854200D104E04FF4F27136
:102E800017A0FFF77BFB00BF00BF032C00D804E0B6
:102E900040F2E51112A0FFF771FB00BF05F1400001
:102EA00000EB841006600DE0781C87B2B7F5805FF8
:102EB00003D96FF00700BDE8F08105F1400000EB99
:102EC0008410066005F1400000EB84100068B042F9
:102ED000EAD10020EFE70000003005400034054053
:102EE0002E2E5C647269766572735C686333325F40
:102EF0006C6C5F6472697665725C7372635C686344
:102F000033325F6C6C5F646D612E63002DE9F041BC
:102F100005460F4616464FF0000800BF1A48854286
:102F200002D01A48854200D104E040F21E2118A0C8
:102F3000FFF724FB00BF00BF032F00D804E040F2DE
:102F40001F2113A0FFF71AFB00BF05F1480000EB9B
:102F50008714206866F31F4020600EE008F101002E
:102F60001FFA80F8B8F5805F03D96FF00700BDE85D
:102F7000F081206866F31F4020602068B6EB104F98
:102F8000ECD10020F3E7000000300540003405409C
:102F90002E2E5C647269766572735C686333325F8F
:102FA0006C6C5F6472697665725C7372635C686393
:102FB00033325F6C6C5F646D612E630001460020EC
:102FC00009B9C01E0AE000220A604A608A60CA602D
:102FD0000A6101224A6100228A61CA6170470000C9
:102FE00070B504460D46164600BF1748844202D00D
:102FF0001648844200D104E04FF4907114A0FFF70A
:10300000BDFA00BF00BF2DB145F00F10B0F10F1F8A
:1030100000D104E040F221110DA0FFF7AFFA00BF8C
:1030200000BF0EB1012E00D104E04FF4917108A051
:10303000FFF7A4FA00BF1EB920692843206102E00F
:103040002069A843206170BD003005400034054070
:103050002E2E5C647269766572735C686333325FCE
:103060006C6C5F6472697665725C7372635C6863D2
:1030700033325F6C6C5F646D612E63002DE9F0414B
:1030800080460D4614461E46069F002221462846CD
:10309000FFF7B6FA012000FA04F100222846FFF7F4
:1030A0009FFF324621462846FFF784FE0122214633
:1030B0002846FFF71BFEBAB221462846FFF726FF37
:1030C000012221462846FFF79BFA012000FA04F16D
:1030D00002462846FFF784FFBDE8F0812DE9F04164
:1030E00007460C4615461E46DDF818800022294684
:1030F0002046FFF785FA324629462046FFF7B0FE04
:103100001FFA88F229462046FFF700FF01222946D0
:103110002046FFF775FA01220821384604F0CCFE5C
:10312000BDE8F08170B50446002500BF1D48006869
:10313000012800D104E040F207111BA0FFF71EFA9E
:1031400000BF00BFF02C00D804E04FF4847116A03B
:10315000FFF714FA00BF13480830006820F0F000B1
:1031600004F0F00108430F490831086010E06D1CBD
:103170001848006AC0F3026117480068C84044F666
:103180002061B0FBF1F0A84202D26FF0070070BDE1
:1031900004480830006800F0F000A042E7D10020A9
:1031A000F5E70000000401402E2E5C64726976652C
:1031B00072735C686333325F6C6C5F6472697665EE
:1031C000725C7372635C686333325F6C6C5F6566FC
:1031D0006D2E6300004005400080FF1F10B50446BF
:1031E00000BF3CB14FF6FF7020434FF6FF7188429D
:1031F00000D104E040F2032104A0FFF7BFF900BFB3
:103200000F48806D20430E49886510BD2E2E5C64EA
:103210007269766572735C686333325F6C6C5F648D
:1032200072697665725C7372635C686333325F6C7B
:103230006C5F696E74657272757074732E630000D2
:103240000010054070B504460D4600BF2CB117486C
:1032500020431649884200D103E0712114A0FFF7F2
:103260008DF900BF00BF0DB1012D00D103E0722127
:103270000FA0FFF783F900BF00BF1848006900F0F6
:10328000010000B103E0732109A0FFF777F900BF47
:10329000012D05D111480068A0431049086004E0E1
:1032A0000E48006820430D49086070BD11C5F38FBA
:1032B0002E2E5C647269766572735C686333325F6C
:1032C0006C6C5F6472697665725C7372635C686370
:1032D00033325F6C6C5F6663672E6300008004406E
:1032E00070B504460D4600BF2CB11148204310496B
:1032F000884200D103E084210EA0FFF73FF900BF10
:1033000000BF0DB1012D00D103E0852109A0FFF719
:1033100035F900BF012D05D111484068A04310497F
:10332000486004E00E48406820430D49486070BD85
:1033300079FD0F0F2E2E5C647269766572735C687E
:103340006333325F6C6C5F6472697665725C737252
:10335000635C686333325F6C6C5F6663672E630027
:103360000080044070B504460D4600BF2CB11148E2
:1033700020431049884200D103E096210EA0FFF7B8
:10338000FDF800BF00BF0DB1012D00D103E0972172
:1033900009A0FFF7F3F800BF012D05D1114880689F
:1033A000A0431049886004E00E48806820430D491E
:1033B000886070BDFF8707002E2E5C647269766599
:1033C00072735C686333325F6C6C5F6472697665DC
:1033D000725C7372635C686333325F6C6C5F6663EC
:1033E000672E6300008004402DE9F05F05460F461C
:1033F00014464FF0000B14B96FF0020BD5E000BF7C
:103400006B48008800F0010000B103E0FF2169A0D3
:10341000FFF7B4F800BF00BF4DB1012D07D0022D5A
:1034200005D0032D03D0042D01D0052D00D104E0DB
:103430004FF480715FA0FFF7A1F800BF00BF17B184
:10344000B8B200B104E040F201115AA0FFF796F8BB
:1034500000BF00BF208810B12088012800D104E0FF
:103460004FF4817153A0FFF789F800BF00BF608857
:1034700010B16088022800D104E040F203114DA091
:10348000FFF77CF800BF00BFA08810B1A088042817
:1034900000D104E04FF4827146A0FFF76FF800BF3F
:1034A00000BFE08828B1E088102802D0E0882028FA
:1034B00000D104E040F205113EA0FFF75FF800BF25
:1034C00000BF208918B12089B0F5804F00D104E0F9
:1034D0004FF4837137A0FFF751F800BF00BF608938
:1034E00010B16089402800D104E040F2071131A0FA
:1034F000FFF744F800BF00BFA08918B1A089B0F55C
:10350000007F00D104E04FF484712AA0FFF736F861
:1035100000BF00BFE08918B1E089B0F5805F00D13D
:1035200004E040F2091123A0FFF728F800BF00BF14
:10353000208A18B1208AB0F5004F00D104E04FF482
:1035400085711CA0FFF71AF800BF00262BE00120B0
:10355000B040384028B3208861880843A1880843D8
:10356000E188084361890843A1890843E189084348
:10357000218940EA010A45F27728208A40EA0A0AAE
:1035800048F400480A48001D00EB851000EB86094E
:10359000B9F8000020EA08000AEA08010843A9F87F
:1035A0000000701CC6B2102ED1D35846BDE8F09F63
:1035B000FC3B05402E2E5C647269766572735C6814
:1035C0006333325F6C6C5F6472697665725C7372D0
:1035D000635C686333325F6C6C5F6770696F2E6326
:1035E0000000000070B504460D4600BF4CB1012C30
:1035F00007D0022C05D0032C03D0042C01D0052CBD
:1036000000D104E040F2F1110CA0FEF7B7FF00BFBB
:1036100000BF15B1A8B200B104E04FF4F97107A0E2
:10362000FEF7ACFF00BF114901EB0410B0F8000831
:10363000284008B1012070BD0020FCE72E2E5C64FC
:103640007269766572735C686333325F6C6C5F6459
:1036500072697665725C7372635C686333325F6C47
:103660006C5F6770696F2E630000000000300540DA
:1036700070B504460D4600BF4CB1012C07D0022C9A
:1036800005D0032C03D0042C01D0052C00D104E07C
:1036900040F23D210BA0FEF771FF00BF00BF15B146
:1036A000A8B200B104E040F23E2106A0FEF766FF9A
:1036B00000BF1048102101FB0406308828433080E9
:1036C00070BD00002E2E5C647269766572735C6852
:1036D0006333325F6C6C5F6472697665725C7372BF
:1036E000635C686333325F6C6C5F6770696F2E6315
:1036F000000000000A38054070B504460D4600BFC2
:1037000024B144F01F001F2800D104E040F25F11F3
:1037100018A0FEF733FF00BF00BF0DB1012D00D18F
:1037200004E04FF4B07113A0FEF728FF00BF00BF04
:103730001C48008800F0010000B104E040F2611173
:103740000CA0FEF71BFF00BF012D09D1154808385A
:10375000008804F01F01084312490839088008E076
:1037600010480838008804F01F0188430D490839C3
:10377000088070BD2E2E5C647269766572735C6819
:103780006333325F6C6C5F6472697665725C73720E
:10379000635C686333325F6C6C5F6770696F2E6364
:1037A00000000000FC3B05402DE9F04104460F46B7
:1037B000164600BF4CB1012C07D0022C05D0032CBB
:1037C00003D0042C01D0052C00D104E040F2771185
:1037D0001EA0FEF7D3FE00BF00BF17B1B8B200B104
:1037E00004E04FF4BC7119A0FEF7C8FE00BF00BF93
:1037F0000F2E03D9202E02D33B2E00D804E040F236
:10380000791112A0FEF7BAFE00BF00BF1B48008866
:1038100000F0010000B104E04FF4BD710BA0FEF711
:10382000ADFE00BF00250DE00120A840384038B1B2
:103830001248801D00EB841000EB8508A8F800609A
:10384000681CC5B2102DEFD3BDE8F0812E2E5C644C
:103850007269766572735C686333325F6C6C5F6447
:1038600072697665725C7372635C686333325F6C35
:103870006C5F6770696F2E6300000000FC3B0540C1
:1038800070B504460D4600BF4CB1012C07D0022C88
:1038900005D0032C03D0042C01D0052C00D104E06A
:1038A00040F22B210BA0FEF769FE00BF00BF15B14F
:1038B000A8B200B104E04FF40B7106A0FEF75EFE63
:1038C00000BF1048102101FB0406308828433080D7
:1038D00070BD00002E2E5C647269766572735C6840
:1038E0006333325F6C6C5F6472697665725C7372AD
:1038F000635C686333325F6C6C5F6770696F2E6303
:10390000000000000838054010B5044600BF44B16F
:10391000B4F5804F05D0B4F5004F02D0B4F5404F58
:1039200000D104E040F2CD110EA0FEF727FE00BF4B
:1039300000BF1848008800F0010000B104E04FF417
:10394000E77108A0FEF71AFE00BF1248001F0088AA
:10395000C0F30D0004F4404108430E49091F0880DC
:1039600010BD00002E2E5C647269766572735C680F
:103970006333325F6C6C5F6472697665725C73721C
:10398000635C686333325F6C6C5F6770696F2E6372
:1039900000000000FC3B05400146002009B9C01EA4
:1039A00009E000220A804A80CA800A820A814A818C
:1039B0008A81CA818A80704710B59E210448FCF72D
:1039C0000AFE3F20024981F8200081F8320010BD34
:1039D0003880FF1FF0B53E4E367806F00706062EFB
:1039E00043D2DFE806F003070A0E1115394E366898
:1039F00006603BE0384E066038E04FF40046066053
:103A000034E0354E066031E0324E366806602DE017
:103A10002F4EDA363668330F2D4E263ED6F800612B
:103A2000C6F308222A4EDA36366806F01F04284EFE
:103A3000263ED6F80061C6F3C01656B9661C264F5E
:103A4000B7FBF6F6571C7E435F1CB6FBF7F6066025
:103A50000AE0204E3568661CB5FBF6F6571C7E431F
:103A60005F1CB6FBF7F6066000E000BF00BF184918
:103A7000891F174E263E366A0E6006680F68C7F328
:103A80000267FE4046600F78C7F302170668FE40E3
:103A9000866006680F68C7F30247FE40C6600F885D
:103AA000C7F302370668FE40066106680F68C7F371
:103AB0000257FE4046610F7807F007070668FE4090
:103AC00086610F88C7F302270668FE40C661F0BD15
:103AD000264005400480FF1F00127A0070B504469E
:103AE0000D4600BF1148844205D01148844202D0DF
:103AF0001048844200D104E040F2CD210EA0FEF730
:103B00003DFD00BF00BF15B1B5F5806F00D104E0E9
:103B100040F2CE2108A0FEF731FD00BF206820F45E
:103B2000806005F480610843206070BD00E00440BF
:103B300000E4044000E804402E2E5C64726976655F
:103B400072735C686333325F6C6C5F647269766554
:103B5000725C7372635C686333325F6C6C5F693292
:103B6000632E630070B504460D4600BF0F488442C3
:103B700005D00F48844202D00E48844200D104E0B0
:103B800040F27A210CA0FEF7F9FC00BF00BF2DB176
:103B9000144828431349884200D104E040F27B21B5
:103BA00005A0FEF7EBFC00BF256270BD00E00440FD
:103BB00000E4044000E804402E2E5C6472697665DF
:103BC00072735C686333325F6C6C5F6472697665D4
:103BD000725C7372635C686333325F6C6C5F693212
:103BE000632E6300DF52F00070B504460D4600BF3F
:103BF0000F48844205D00F48844202D00E488442C8
:103C000000D104E04FF4DF710CA0FEF7B7FC00BF59
:103C100000BF0DB1012D00D104E040F2BF1107A09B
:103C2000FEF7ACFC00BF206865F30000206070BDAB
:103C300000E0044000E4044000E804402E2E5C64F0
:103C40007269766572735C686333325F6C6C5F6453
:103C500072697665725C7372635C686333325F6C41
:103C60006C5F6932632E630010B5044600BF0A48DA
:103C7000844205D00948844202D00948844200D1D8
:103C800003E0D52107A0FEF779FC00BF206840F0D3
:103C90008000206010BD000000E0044000E404400B
:103CA00000E804402E2E5C647269766572735C686D
:103CB0006333325F6C6C5F6472697665725C7372D9
:103CC000635C686333325F6C6C5F6932632E6300E0
:103CD00010B5044600BF0A48844205D00948844212
:103CE00002D00948844200D103E0C82107A0FEF7B2
:103CF00045FC00BF206840F48070206010BD0000CB
:103D000000E0044000E4044000E804402E2E5C641F
:103D10007269766572735C686333325F6C6C5F6482
:103D200072697665725C7372635C686333325F6C70
:103D30006C5F6932632E630010B5044600BF0A4809
:103D4000844205D00948844202D00948844200D107
:103D500003E0E22107A0FEF711FC00BF206840F459
:103D60000070206010BD000000E0044000E404404A
:103D700000E804402E2E5C647269766572735C689C
:103D80006333325F6C6C5F6472697665725C737208
:103D9000635C686333325F6C6C5F6932632E63000F
:103DA00070B504460D4600BF1248844205D0124843
:103DB000844202D01148844200D104E04FF41771CC
:103DC0000FA0FEF7DBFB00BF00BF2DB11748284353
:103DD0001649884200D104E040F25D2108A0FEF7B8
:103DE000CDFB00BFE069284008B1012070BD002074
:103DF000FCE7000000E0044000E4044000E8044068
:103E00002E2E5C647269766572735C686333325F10
:103E10006C6C5F6472697665725C7372635C686314
:103E200033325F6C6C5F6932632E6300DF56F700DC
:103E30002DE9FF41054616461F46DDF82880012181
:103E40002B4800F075F901212948FFF7CDFE00212C
:103E5000274800F06DF94146254800F0A9F90446CD
:103E600094BB434600222946214800F033FA044619
:103E70001CB1204604B0BDE8F0814346012201A9EF
:103E80001B4800F09BFA04460CB12046F2E741467D
:103E9000174800F00BF90446BCB9434601222946F5
:103EA000134800F017FA044643463A463146104894
:103EB00000F086F8044641460D4800F0C1F904467A
:103EC00014B14FF0FF30D5E702E04FF0FF30D1E7FB
:103ED0003CB100210648FFF701FE4146044800F0CE
:103EE000AFF900210248FFF77FFE2046C2E700003D
:103EF00000E804402DE9F04105460F4690461E4675
:103F00000121154800F014F901211348FFF76CFE58
:103F10000021114800F00CF931460F4800F048F933
:103F2000044674B93346002229460B4800F0D2F902
:103F3000044634B9334642463946074800F03EFA53
:103F400004463146044800F07BF900210248FFF79F
:103F50004BFE2046BDE8F08100E8044010B5044661
:103F600000BF0948844205D00848844202D008486E
:103F7000844200D104E040F2BE2106A0FEF7FEFA22
:103F800000BF94F8280010BD00E0044000E40440A5
:103F900000E804402E2E5C647269766572735C687A
:103FA0006333325F6C6C5F6472697665725C7372E6
:103FB000635C686333325F6C6C5F6932632E6300ED
:103FC0002DE9F04705460F46164699464FF0000882
:103FD00000BF2848854205D02748854202D027489F
:103FE000854200D104E040F2154125A0FEF7C6FA53
:103FF00000BF77B3A86800F0800A00242CE04B468D
:1040000001224021284600F03BFA8046BAF1000F19
:104010000AD1022E15D3B01EA04212D14FF48061F6
:104020002846FFF75BFD0CE0701EA04204D0002183
:104030002846FFF753FD04E04FF480612846FFF760
:104040004DFDB8F1000F05D12846FFF787FF385521
:1040500001E009E002E0641CB442D0D300BF0021BB
:104060002846FFF73BFD01E06FF002084046BDE83F
:10407000F087000000E0044000E4044000E8044051
:104080002E2E5C647269766572735C686333325F8E
:104090006C6C5F6472697665725C7372635C686392
:1040A00033325F6C6C5F6932632E630070B5044617
:1040B0000D4600BF0F48844205D00F48844202D00D
:1040C0000E48844200D104E040F256310CA0FEF7C5
:1040D00055FA00BF01212046FFF744FD2046FFF7B7
:1040E000C3FD2B4601221149204600F0C9F90646BE
:1040F000304670BD00E0044000E4044000E80440A5
:104100002E2E5C647269766572735C686333325F0D
:104110006C6C5F6472697665725C7372635C686311
:1041200033325F6C6C5F6932632E63000100020002
:1041300070B504460D4600BF0F48844205D00F48B5
:10414000844202D00E48844200D104E040F28A2129
:104150000CA0FEF713FA00BF00BF0DB1012D00D176
:1041600004E040F28B2107A0FEF708FA00BF2068A8
:1041700065F3CF30206070BD00E0044000E40440EF
:1041800000E804402E2E5C647269766572735C6888
:104190006333325F6C6C5F6472697665725C7372F4
:1041A000635C686333325F6C6C5F6932632E6300FB
:1041B00070B504460E4600BF1248844205D012482E
:1041C000844202D01148844200D104E040F23A31E6
:1041D0000FA0FEF7D3F900BF334600224FF40031A1
:1041E000204600F04DF905464DB92046FFF770FD19
:1041F000334601221149204600F042F9054628467F
:1042000070BD000000E0044000E4044000E8044009
:104210002E2E5C647269766572735C686333325FFC
:104220006C6C5F6472697665725C7372635C686300
:1042300033325F6C6C5F6932632E630001000200F1
:1042400070B504460D4600BF1448844205D014489A
:10425000844202D01348844200D104E040F28E41EF
:1042600011A0FEF78BF900BF04E010212046FFF7F4
:1042700079FC6D1E10212046FFF792FD012801D127
:10428000002DF2D12046FFF757FD2B4601221021C9
:10429000204600F0F5F80646304670BD00E00440C8
:1042A00000E4044000E804402E2E5C6472697665E8
:1042B00072735C686333325F6C6C5F6472697665DD
:1042C000725C7372635C686333325F6C6C5F69321B
:1042D000632E63002DE9F04105460F4614469846CB
:1042E00000BF2848854205D02748854202D027488C
:1042F000854200D104E040F2733125A0FEF73EF97B
:1043000000BF00BF0CB1012C00D104E04FF45D717F
:104310001FA0FEF733F900BF00BF7F2F00D804E0D5
:1043200040F275311AA0FEF729F900BF4346012279
:104330008021284600F0A4F80646FEB9780644EA33
:104340001061284600F00CF93CB9434601220821CF
:10435000284600F095F8064607E0434600224FF451
:104360008021284600F08CF806463EB94FF4805173
:104370002846FFF715FD012800D1861E3046BDE80E
:10438000F081000000E0044000E4044000E8044044
:104390002E2E5C647269766572735C686333325F7B
:1043A0006C6C5F6472697665725C7372635C68637F
:1043B00033325F6C6C5F6932632E63002DE9F84322
:1043C00004460D461746984600260020009000BF80
:1043D0001D48844205D01D48844202D01C488442B6
:1043E00000D104E040F2E7311AA0FEF7C7F800BFA1
:1043F0002DB31EE0434601228021204600F040F804
:104400000646B6B90098295C204600F0A9F8434654
:1044100001220821204600F033F806464FF480516F
:104420002046FFF7BDFC012800D107E00098401CA2
:1044300000900098B84201D0002EDBD001E06FF070
:1044400002063046BDE8F88300E0044000E4044082
:1044500000E804402E2E5C647269766572735C68B5
:104460006333325F6C6C5F6472697665725C737221
:10447000635C686333325F6C6C5F6932632E630028
:104480002DE9F04704460D4616461F466FF0070912
:1044900000BF2448844205D02348844202D02348E8
:1044A000844200D103E0A32121A0FEF767F800BFFA
:1044B00000BF2DB1294828432849884200D103E094
:1044C000A4211BA0FEF75AF800BF00BF0EB1012EB9
:1044D00000D103E0A52116A0FEF750F800BF00BFF1
:1044E000E06900EA0508012E01D1454503D026B94F
:1044F000B8F1000F01D14FF00009B9F1000F00D061
:1045000007B901E07F1EEBE700BF102D08D1E0697D
:10451000B0F5003F01D16FF005094846BDE8F087CE
:104520004846FBE700E0044000E4044000E80440A3
:104530002E2E5C647269766572735C686333325FD9
:104540006C6C5F6472697665725C7372635C6863DD
:1045500033325F6C6C5F6932632E6300DF56F700A5
:1045600070B504460D4600BF0948844205D009488D
:10457000844202D00848844200D104E04FF42C71F8
:1045800006A0FDF7FBFF00BF84F8245070BD0000BB
:1045900000E0044000E4044000E804402E2E5C6487
:1045A0007269766572735C686333325F6C6C5F64EA
:1045B00072697665725C7372635C686333325F6CD8
:1045C0006C5F6932632E630070B5044600260CB937
:1045D000F61E4BE000BF2088B0F5007F00DA03E054
:1045E000C32123A0FDF7CAFF00BF2088400900EBCC
:1045F0004000202101EB4000B4F9021088420AD8A3
:104600002088400900EB4000252101EB4000B4F96F
:104610000210884206D2B4F90200202802D36FF0BB
:10462000020623E060881F49042212FB0015286857
:10463000C0F3080040F2FF11884208D120882860AA
:10464000B4F90210184A606842F821000EE0208890
:104650002968C1F30801884206D1B4F90210124A50
:10466000606842F8210001E06FF00106304670BD3D
:104670002E2E5C647269766572735C686333325F98
:104680006C6C5F6472697665725C7372635C68639C
:1046900033325F6C6C5F696E7465727275707473BF
:1046A0002E6300005C1005401CA2FF1F30B50146C0
:1046B0000020002901DB7F2902DD6FF002000BE002
:1046C000064B042404FB013240F2FF131360002365
:1046D000CCB2034D45F8243030BD00005C100540DD
:1046E0001CA2FF1F10B502490868804710BD0000DA
:1046F0001CA2FF1F10B502494868804710BD00008A
:104700001CA2FF1F10B502498868804710BD000039
:104710001CA2FF1F10B50249C868804710BD0000E9
:104720001CA2FF1F10B502490869804710BD000098
:104730001CA2FF1F10B502494869804710BD000048
:104740001CA2FF1F10B502498869804710BD0000F8
:104750001CA2FF1F10B50249C869804710BD0000A8
:104760001CA2FF1F10B50249086A804710BD000057
:104770001CA2FF1F10B50249486A804710BD000007
:104780001CA2FF1F10B50249886A804710BD0000B7
:104790001CA2FF1F10B50249C86A804710BD000067
:1047A0001CA2FF1F10B50249086B804710BD000016
:1047B0001CA2FF1F10B50249486B804710BD0000C6
:1047C0001CA2FF1F10B50249886B804710BD000076
:1047D0001CA2FF1F10B50249C86B804710BD000026
:1047E0001CA2FF1F10B50249086C804710BD0000D5
:1047F0001CA2FF1F10B50249486C804710BD000085
:104800001CA2FF1F10B50249886C804710BD000034
:104810001CA2FF1F10B50249C86C804710BD0000E4
:104820001CA2FF1F10B50249086D804710BD000093
:104830001CA2FF1F10B50249486D804710BD000043
:104840001CA2FF1F10B50249886D804710BD0000F3
:104850001CA2FF1F10B50249C86D804710BD0000A3
:104860001CA2FF1F10B50249086E804710BD000052
:104870001CA2FF1F10B50249486E804710BD000002
:104880001CA2FF1F10B50249886E804710BD0000B2
:104890001CA2FF1F10B50249C86E804710BD000062
:1048A0001CA2FF1F10B50249086F804710BD000011
:1048B0001CA2FF1F10B50249486F804710BD0000C1
:1048C0001CA2FF1F10B50249886F804710BD000071
:1048D0001CA2FF1F10B50249C86F804710BD000021
:1048E0001CA2FF1F10B50249D1F88000804710BDFF
:1048F0001CA2FF1F10B50249D1F88400804710BDEB
:104900001CA2FF1F10B50249D1F88800804710BDD6
:104910001CA2FF1F10B50249D1F88C00804710BDC2
:104920001CA2FF1F10B50249D1F89000804710BDAE
:104930001CA2FF1F10B50249D1F89400804710BD9A
:104940001CA2FF1F10B50249D1F89800804710BD86
:104950001CA2FF1F10B50249D1F89C00804710BD72
:104960001CA2FF1F10B50249D1F8A000804710BD5E
:104970001CA2FF1F10B50249D1F8A400804710BD4A
:104980001CA2FF1F10B50249D1F8A800804710BD36
:104990001CA2FF1F10B50249D1F8AC00804710BD22
:1049A0001CA2FF1F10B50249D1F8B000804710BD0E
:1049B0001CA2FF1F10B50249D1F8B400804710BDFA
:1049C0001CA2FF1F10B50249D1F8B800804710BDE6
:1049D0001CA2FF1F10B50249D1F8BC00804710BDD2
:1049E0001CA2FF1F10B50249D1F8C000804710BDBE
:1049F0001CA2FF1F10B50249D1F8C400804710BDAA
:104A00001CA2FF1F10B50249D1F8C800804710BD95
:104A10001CA2FF1F10B50249D1F8CC00804710BD81
:104A20001CA2FF1F10B50249D1F8D000804710BD6D
:104A30001CA2FF1F10B50249D1F8D400804710BD59
:104A40001CA2FF1F10B50249D1F8D800804710BD45
:104A50001CA2FF1F10B50249D1F8DC00804710BD31
:104A60001CA2FF1F10B50249D1F8E000804710BD1D
:104A70001CA2FF1F10B50249D1F8E400804710BD09
:104A80001CA2FF1F10B50249D1F8E800804710BDF5
:104A90001CA2FF1F10B50249D1F8EC00804710BDE1
:104AA0001CA2FF1F10B50249D1F8F000804710BDCD
:104AB0001CA2FF1F10B50249D1F8F400804710BDB9
:104AC0001CA2FF1F10B50249D1F8F800804710BDA5
:104AD0001CA2FF1F10B50249D1F8FC00804710BD91
:104AE0001CA2FF1F10B50249D1F80001804710BD7C
:104AF0001CA2FF1F10B50249D1F80401804710BD68
:104B00001CA2FF1F10B50249D1F80801804710BD53
:104B10001CA2FF1F10B50249D1F80C01804710BD3F
:104B20001CA2FF1F10B50249D1F81001804710BD2B
:104B30001CA2FF1F10B50249D1F81401804710BD17
:104B40001CA2FF1F10B50249D1F81801804710BD03
:104B50001CA2FF1F10B50249D1F81C01804710BDEF
:104B60001CA2FF1F10B50249D1F82001804710BDDB
:104B70001CA2FF1F10B50249D1F82401804710BDC7
:104B80001CA2FF1F10B50249D1F82801804710BDB3
:104B90001CA2FF1F10B50249D1F82C01804710BD9F
:104BA0001CA2FF1F10B50249D1F83001804710BD8B
:104BB0001CA2FF1F10B50249D1F83401804710BD77
:104BC0001CA2FF1F10B50249D1F83801804710BD63
:104BD0001CA2FF1F10B50249D1F83C01804710BD4F
:104BE0001CA2FF1F10B50249D1F84001804710BD3B
:104BF0001CA2FF1F10B50249D1F84401804710BD27
:104C00001CA2FF1F10B50249D1F84801804710BD12
:104C10001CA2FF1F10B50249D1F84C01804710BDFE
:104C20001CA2FF1F10B50249D1F85001804710BDEA
:104C30001CA2FF1F10B50249D1F85401804710BDD6
:104C40001CA2FF1F10B50249D1F85801804710BDC2
:104C50001CA2FF1F10B50249D1F85C01804710BDAE
:104C60001CA2FF1F10B50249D1F86001804710BD9A
:104C70001CA2FF1F10B50249D1F86401804710BD86
:104C80001CA2FF1F10B50249D1F86801804710BD72
:104C90001CA2FF1F10B50249D1F86C01804710BD5E
:104CA0001CA2FF1F10B50249D1F87001804710BD4A
:104CB0001CA2FF1F10B50249D1F87401804710BD36
:104CC0001CA2FF1F10B50249D1F87801804710BD22
:104CD0001CA2FF1F10B50249D1F87C01804710BD0E
:104CE0001CA2FF1F10B50249D1F88001804710BDFA
:104CF0001CA2FF1F10B50249D1F88401804710BDE6
:104D00001CA2FF1F10B50249D1F88801804710BDD1
:104D10001CA2FF1F10B50249D1F88C01804710BDBD
:104D20001CA2FF1F10B50249D1F89001804710BDA9
:104D30001CA2FF1F10B50249D1F89401804710BD95
:104D40001CA2FF1F10B50249D1F89801804710BD81
:104D50001CA2FF1F10B50249D1F89C01804710BD6D
:104D60001CA2FF1F10B50249D1F8A001804710BD59
:104D70001CA2FF1F10B50249D1F8A401804710BD45
:104D80001CA2FF1F10B50249D1F8A801804710BD31
:104D90001CA2FF1F10B50249D1F8AC01804710BD1D
:104DA0001CA2FF1F10B50249D1F8B001804710BD09
:104DB0001CA2FF1F10B50249D1F8B401804710BDF5
:104DC0001CA2FF1F10B50249D1F8B801804710BDE1
:104DD0001CA2FF1F10B50249D1F8BC01804710BDCD
:104DE0001CA2FF1F10B50249D1F8C001804710BDB9
:104DF0001CA2FF1F10B50249D1F8C401804710BDA5
:104E00001CA2FF1F10B50249D1F8C801804710BD90
:104E10001CA2FF1F10B50249D1F8CC01804710BD7C
:104E20001CA2FF1F10B50249D1F8D001804710BD68
:104E30001CA2FF1F10B50249D1F8D401804710BD54
:104E40001CA2FF1F10B50249D1F8D801804710BD40
:104E50001CA2FF1F10B50249D1F8DC01804710BD2C
:104E60001CA2FF1F10B50249D1F8E001804710BD18
:104E70001CA2FF1F10B50249D1F8E401804710BD04
:104E80001CA2FF1F10B50249D1F8E801804710BDF0
:104E90001CA2FF1F10B50249D1F8EC01804710BDDC
:104EA0001CA2FF1F10B50249D1F8F001804710BDC8
:104EB0001CA2FF1F10B50249D1F8F401804710BDB4
:104EC0001CA2FF1F10B50249D1F8F801804710BDA0
:104ED0001CA2FF1F10B50249D1F8FC01804710BD8C
:104EE0001CA2FF1F10B50021064808F0E3F906498F
:104EF00008600846006810B94FF0FF3010BD002070
:104F0000FCE7000098E600002880FF1F10B5002194
:104F1000064808F0CFF9064908600846006810B94D
:104F20004FF0FF3010BD0020FCE70000B8E60000A5
:104F3000EC80FF1F10B50021064808F0BBF90649B8
:104F400008600846006810B94FF0FF3010BD00201F
:104F5000FCE7000088E600002080FF1F10B500215C
:104F6000064808F0A7F9064908600846006810B925
:104F70004FF0FF3010BD0020FCE70000A8E6000065
:104F8000E080FF1F10B50220094908600A46012190
:104F9000084808F0B7F9084908600846006830B1C9
:104FA00001210548006808F0C3F9044600BF10BDA0
:104FB0000081FF1FC8E60000FC80FF1F10B50446FB
:104FC00004F0010048B100BF40F223101A49086004
:104FD00043F21020086000BF00BF04F0020028B1B7
:104FE00000BF16481649086100BF00BF04F0040066
:104FF00030B100BF4AF201501249088000BF00BF23
:1050000004F0100018B14AF2085000F059F804F00A
:10501000400018B14AF2035000F052F804F080004A
:1050200040B100BF7720084908600749083108608F
:1050300000BF00BF10BD0000000401400100A5A595
:1050400000800440FC3B05400408054010B500BF4B
:105050000F48008800F00200022800D104E040F26E
:105060003F410CA0FDF78AFA00BF0948001D0078F7
:1050700000F0C00040F00F000549091D0870102025
:105080000349113108701E20FDF79AFA002010BD67
:10509000FE4305402E2E5C647269766572735C680F
:1050A0006333325F6C6C5F6472697665725C7372D5
:1050B000635C686333325F6C6C5F7077632E630090
:1050C000034909880143034AA2F8FE137047000010
:1050D000FE430540004005401CB514208DF8040037
:1050E00001208DF805008DF8060003208DF80700DB
:1050F00017208DF800003B208DF8010037208DF837
:10510000020000208DF8030001A900F02BFB10B174
:1051100005A003F0BFF96946002000F00FFC10B1B4
:1051200001A003F0B7F91CBD536574204461746598
:10513000206661696C6564210D0A000010B50446A3
:1051400000BF0CB1012C00D104E04FF4E27103A0C8
:10515000FDF714FA00BF0C48046010BD2E2E5C64ED
:105160007269766572735C686333325F6C6C5F641E
:1051700072697665725C7372635C686333325F6C0C
:105180006C5F7274632E63009C0098427FB552205E
:10519000ADF800000220ADF8020030480190BDF9E2
:1051A0000200FFF783FA6846FFF70EFA04460CB1D7
:1051B00000BFFEE7BDF90200002807DB00F01F0179
:1051C00001228A402649430941F8232000BFBDF946
:1051D00002000F21002804DB0A07130E214A135492
:1051E00006E00A07150E204A00F00F031B1FD554D6
:1051F00000BFBDF9020000280DDB00BF00BF00F0BA
:105200001F02012191404209920002F1E022C2F8FE
:10521000001100BF00BF00BF00F0D4F8E0B900F0FB
:1052200025F810F1080F17D002A800F0A1FC00200B
:105230008DF8080008208DF8090002208DF80A007A
:1052400002A800F0A3F9FFF747FF0121202000F09A
:105250003FFA0120FFF772FF7FBD000059570000A1
:1052600080E200E000E400E018ED00E008B5002076
:1052700000211F4A11601F49096AC1F302621E49D9
:105280000968D14044F62062B1FBF2F16422514337
:10529000009107E0009911B96FF0070006E000994E
:1052A000491E0091124909680029F3D100BFF0B9E5
:1052B00001210F4A11600F49096AC1F302620E49C8
:1052C0000968D14044F62062B1FBF2F164225143F7
:1052D000009107E0009911B96FF0070006E000990E
:1052E000491E0091024909680029F3D100BF08BD99
:1052F00000009842004005400080FF1F08B50020D4
:105300001449096829B3134968310968012920D073
:105310000121104A643211600F49096AC1F3026227
:105320000E490968D14044F62062B1FBF2F16422D3
:105330005143009107E0009911B96FF0070007E0B1
:105340000099491E00910349683109680129F2D189
:1053500000BF08BD9C009842004005400080FF1F30
:1053600008B500201449096821B313496831096858
:1053700001B30021104A643211601049096AC1F377
:1053800002620F490968D14044F62062B1FBF2F194
:1053900064225143009107E0009911B96FF00700B2
:1053A00007E00099491E0091034968310968002906
:1053B000F2D100BF08BD00009C00984200400540AB
:1053C0000080FF1F00200249096801B101207047D9
:1053D0009C00984270B505460C4600260CB9F61E96
:1053E00043E000BF0DB1012D00D104E040F23D21AA
:1053F0001FA0FDF7C3F800BFFFF780FF10B14FF00B
:10540000FF3632E0254890F828002070234890F8B5
:1054100024006070214890F82000A0701F48007F91
:10542000E070EDB9207800F00F002178091101EB50
:10543000810100EB41002070607800F00F0061787E
:10544000091101EB810100EB41006070A07800F0D0
:105450000F00A178091101EB810100EB4100A07060
:10546000FFF77EFF08B14FF0FF36304670BD0000F9
:105470002E2E5C647269766572735C686333325F8A
:105480006C6C5F6472697665725C7372635C68638E
:1054900033325F6C6C5F7274632E630000C0044033
:1054A00070B505460C4600260CB9F61E51E000BF4B
:1054B0000DB1012D00D104E040F2B22126A0FDF78C
:1054C0005DF800BFFFF71AFF10B14FF0FF3640E064
:1054D0002C48007E20702B48007D60702948007C9D
:1054E000A0702948006870B9207800F020002028BA
:1054F00006D1207800F0DF0020702020E07004E06A
:105500000020E07001E00020E070EDB9207800F0AC
:105510000F002178091101EB810100EB410020709F
:10552000607800F00F006178091101EB810100EB58
:1055300041006070A07800F00F00A178091101EB24
:10554000810100EB4100A070FFF70AFF08B14FF0A6
:10555000FF36304670BD00002E2E5C6472697665A1
:1055600072735C686333325F6C6C5F64726976651A
:10557000725C7372635C686333325F6C6C5F72740D
:10558000632E630000C004408C00984270B504464E
:1055900000250CB9ED1E80E000BF207810B1207806
:1055A000902800D103E0D1213DA0FCF7E7FF00BF28
:1055B00000BF607810B16078082800D103E0D221E4
:1055C00037A0FCF7DBFF00BF00BFA07888B1A07850
:1055D00001280ED0A07802280BD0A078032808D08C
:1055E000A078042805D0A078052802D0A078062845
:1055F00000D103E0D3212AA0FCF7C0FF00BF00BF09
:10560000E07810B1E078802800D103E0D42124A014
:10561000FCF7B4FF00BF00BFE088B0F5007F00D208
:1056200003E0D5211EA0FCF7A9FF00BF00BF207931
:1056300010B12079402800D103E0D62118A0FCF752
:105640009DFF00BF2148007B00F06F00217801F032
:10565000900108431D490873A078617808432179B7
:10566000084300F04F001949097901F0B0010843DF
:1056700016490871E078E188C1F30021084300F081
:10568000810012493831097801F07E0108430F4941
:1056900038310870A079091D0870284670BD0000D7
:1056A0002E2E5C647269766572735C686333325F58
:1056B0006C6C5F6472697665725C7372635C68635C
:1056C00033325F6C6C5F7274632E630000C0044001
:1056D00070B504460D4600BF24B144F06000602858
:1056E00000D104E040F25A310FA0FCF747FF00BFA1
:1056F00000BF0DB1012D00D104E040F25B310AA0E2
:10570000FCF73CFF00BFE6B266B135B11148007A44
:10571000F1B208430F49087204E00E48007AB04322
:105720000C49087270BD00002E2E5C6472697665AB
:1057300072735C686333325F6C6C5F647269766548
:10574000725C7372635C686333325F6C6C5F72743B
:10575000632E630000C004400120014908707047B7
:10576000E880FF1F70B505460C4600260CB9F61EF2
:10577000C9E000BF0DB1012D00D104E04FF401716B
:1057800062A0FCF7FBFE00BF002D4CD000BF2078CC
:1057900000F00F002178091101EB810100EB4100BD
:1057A000632800D804E040F2062158A0FCF7E6FE8A
:1057B00000BF00BF607800F00F006178091101EBB5
:1057C000810100EB410058B1607800F00F00617872
:1057D000091101EB810100EB41000C2800D804E025
:1057E00040F2072149A0FCF7C9FE00BF00BFA07826
:1057F00000F00F00A178091101EB810100EB4100DD
:1058000058B1A07800F00F00A178091101EB8101D7
:1058100000EB41001F2800D804E04FF402713BA0C8
:10582000FCF7ACFE24E000BF2078632800D804E039
:1058300040F20A2135A0FCF7A1FE00BF00BF60784E
:1058400018B160780C2800D804E040F20B212FA09A
:10585000FCF794FE00BF00BFA07818B1A0781F2805
:1058600000D804E04FF4037128A0FCF787FE00BFC6
:1058700000BFE078062800D804E040F20E2123A003
:10588000FCF77CFE00BFFFF739FD10B14FF0FF368B
:1058900039E035BB20780A21B0FBF1F201FB1200A0
:1058A00021780A22B1FBF2F100EB01102070607840
:1058B0000A21B0FBF1F201FB120061780A22B1FB70
:1058C000F2F100EB01106070A0780A21B0FBF1F258
:1058D00001FB1200A1780A22B1FBF2F100EB0110EA
:1058E000A0702078144908706078091F0870A078AB
:1058F000091F0870E078104928390877FFF730FD54
:1059000008B14FF0FF36304670BD00002E2E5C64AB
:105910007269766572735C686333325F6C6C5F6466
:1059200072697665725C7372635C686333325F6C54
:105930006C5F7274632E630028C0044070B5054626
:105940000C4600260CB9F61EF5E000BF0DB1012D86
:1059500000D104E040F26D2178A0FCF70FFE00BFFB
:10596000002D66D080480068002829D100BF20782B
:1059700000F00F002178091101EB810100EB4100DB
:1059800058B1207800F00F002178091101EB810156
:1059900000EB41000C2800D804E04FF41C7167A014
:1059A000FCF7ECFD00BF00BFE07810B1E0782028E4
:1059B00000D104E040F2712160A0FCF7DFFD12E0AD
:1059C00000BF207800F00F002178091101EB810160
:1059D00000EB4100172800D804E040F2732157A0E3
:1059E000FCF7CCFD00BF00BF607800F00F006178CD
:1059F000091101EB810100EB41003B2800D804E0D4
:105A000040F275214DA0FCF7B9FD00BF00BFA078A2
:105A100000F00F00A178091101EB810100EB4100BA
:105A20003B2800D804E040F2762144A0FCF7A6FD14
:105A30003DE04D480068C8B900BF207818B1207813
:105A40000C2800D804E040F279213CA0FCF796FD38
:105A500000BF00BFE07810B1E078202800D104E05A
:105A600040F27A2135A0FCF789FD0AE000BF2078DA
:105A7000172800D804E04FF41F7130A0FCF77EFD1A
:105A800000BF00BF60783B2800D804E040F27E21D0
:105A90002AA0FCF773FD00BF00BFA0783B2800D808
:105AA00004E040F27F2125A0FCF768FD00BFFFF76E
:105AB00025FC10B14FF0FF363DE035BB20780A21C0
:105AC000B0FBF1F201FB120021780A22B1FBF2F1E6
:105AD00000EB0110207060780A21B0FBF1F201FBAD
